:020000040800F2
:1000000050050020010100083B1E0008D11800081F
:10001000391E0008AD020008F123000800000000AE
:10002000000000000000000000000000B91F0008F0
:100030003105000800000000851E0008752000083A
:100040001B0100081B0100081B0100081B01000820
:100050001B0100081B0100081B0100081B01000810
:100060001B0100081B0100081B0100081B01000800
:100070001B0100081B0100081B0100081B010008F0
:100080001B0100081B0100081B0100081B010008E0
:100090001B0100081B0100081B0100081B010008D0
:1000A0001B0100081B0100081B0100081B010008C0
:1000B0001B0100081B0100081B0100081B010008B0
:1000C0001B0100081B0100081B0100081B010008A0
:1000D0001B0100081B0100081B0100081B01000890
:1000E0001B0100081B0100081B010008DFF80CD0F1
:1000F00000F082F800480047053200085005002053
:100100000648804706480047FEE7FEE7FEE7FEE7B1
:10011000FEE7FEE7FEE7FEE7FEE7FEE7C120000898
:10012000ED000008202A04DB203A21FA02F0002129
:10013000704721FA02F3D040C2F1200291400843F7
:1001400019467047D2B201E000F8012B491EFBD2DC
:1001500070470022F6E710B513460A4604461946D2
:10016000FFF7F0FF204610BD10B5002200E0521C42
:10017000835C8C5CA34201D1002BF8D1D8B2E1B2F0
:10018000401A10BD034611F8012B00F8012B002A7C
:10019000F9D1184670472DE9F05F054600209246D8
:1001A0009B4688460646814640241BE02846414639
:1001B00047462246FFF7B6FF53465A46C01A9141BA
:1001C00010D311461846224600F028F82D1A67EB86
:1001D00001084F4622460120002100F01FF817EBCE
:1001E00000094E41201EA4F10104DFDC48463146DF
:1001F0002A464346BDE8F09F064C074D06E0E068FE
:1002000040F0010394E8070098471034AC42F6D35D
:10021000FFF770FF3437000854370008202A04DB4A
:10022000203A00FA02F1002070479140C2F1200309
:1002300020FA03F319439040704701600272436053
:1002400070473EB50446080A8DF8040064208DF816
:1002500005100090217A022301AA206800F0F6FC24
:1002600014200090217A012302AA206800F05EFB8E
:100270009DF808003EBD7CB515460C460646FFF7C6
:10028000E0FFA84211D0200A8DF804008DF8054047
:1002900064208DF806500090317A032301AA30685B
:1002A00000F0D4FC052000F045F97CBDFEE710B558
:1002B0000021012000F062F8BDE81040052000F0A8
:1002C00039B9000010B51D4C207061702820607194
:1002D0000620A0700C20E07014202071322000F065
:1002E00029F90021332000F049F80021332000F0E3
:1002F00045F8052000F01EF90021322000F03EF8FC
:10030000052000F017F9A078002100F037F8E07818
:10031000002100F033F82079002100F02FF86079F7
:10032000002100F02BF80021012000F027F8002127
:10033000BDE81040022000F021B800004800002075
:1003400008B50CA2126800920B4A1378834201D8B8
:100350005B1ED8B252788A4201D8521ED1B21DF823
:1003600001100844C0B240F08000002100F006F8FF
:1003700008BD0000004014544800002070B5050975
:10038000364E0446012901D011B106E0012200E0F9
:1003900000220121304600F0E6F905F001020821B3
:1003A000304600F0E0F9C5F340021021304600F07D
:1003B000DAF9C5F380022021304600F0D4F9EA08CA
:1003C0004021304600F0CFF900220421304600F0F1
:1003D000CAF9012000F0AEF801220421304600F0F5
:1003E000C2F9012000F0A6F800220421304600F0F6
:1003F000BAF9012000F09EF804F00102082130460D
:1004000000F0B1F9C4F340021021304600F0ABF91E
:10041000C4F380022021304600F0A5F9C4F3C002E5
:100420004021304600F09FF900220421304600F0C0
:100430009AF9012000F07EF801220421304600F0F4
:1004400092F9012000F076F800220421304600F0F5
:100450008AF9BDE87040012000F06CB80008014046
:100460000121FFF78BBF10B5044602E0641CFFF7C3
:10047000F7FF20780028F9D110BD000000224FF4CA
:100480008071014800F06FB9000C01400C4800B5C4
:10049000816985B041F0040181618069694600F09D
:1004A0000400049000200290FF20009001200190A1
:1004B00003200390034800F051F805B000BD000090
:1004C000001002400008014070B5164886B08169EE
:1004D00041F008018161816901F00801049181699D
:1004E00041F0040181618069002500F0040004905E
:1004F000382001248DE831000B4E694630460394C4
:1005000000F02CF801223821304600F02CF94FF48D
:100510007060CDE9000569460294044800F01EF8B9
:1005200006B070BD00100240000C01400008014000
:100530007047000070B5044600F01CF90546B4F1A0
:10054000FF3F02D004480078044400F013F9401B38
:10055000A042FAD370BD0000500000202DE9F84FF2
:100560004FF0000C00230A68002A7DD0DFF8DC8100
:100570000F27A8F1040A08F10409AAF1040B0122CB
:1005800002FA0CF60A683240B2426ED1DFF8C0E1DE
:100590004C68A4EB0E0574452BD00DDC032C34D035
:1005A00005DC34B3012C19D0022C2FD11BE0112C07
:1005B00016D0122C2AD119E0B5F5881F19D006DC07
:1005C000B5F5803F15D0B5F5801F1FD111E0B5F509
:1005D000001F0ED0B5F5041F18D10AE0CB6815E056
:1005E000CB681B1D12E0CB6808330FE0CB680C33DF
:1005F0000CE08B6823B1012B04D00823466105E091
:10060000042303E00823066100E00023B2F5807FA5
:1006100001D2054601E000F1040502D24FEA8C0444
:1006200003E0ACF108044FEA84042E6807FA04FEE4
:1006300026EA0E0603FA04F446EA04042C604C6829
:1006400014F0805F79D0434CA56945F00105A561A0
:10065000A46904F0010400942CF0030404F1804424
:1006600004F58034A66801E06EE066E04FEA8C7520
:100670004FEA157507FA05FE26EA0E0EA0F1804630
:10068000B6F584361ED0A0F18046B6F586361BD06E
:10069000A0F18046B6F5883618D0A0F18046B6F5B0
:1006A0008A3615D0042606FA05F545EA0E05A5603A
:1006B0004C6814F4801F0DD0D8F800401443C8F8DB
:1006C00000400CE00026EEE70126ECE70226EAE710
:1006D0000326E8E7D8F800409443C8F800404C6887
:1006E00014F4001F05D0D9F800401443C9F80040A5
:1006F00004E0D9F800409443C9F800404C6814F471
:10070000003F05D0DAF800401443CAF8004004E086
:10071000DAF800409443CAF800404C6814F4803F73
:1007200005D0DBF800402243CBF8002005E0DBF8E1
:10073000004024EA0202CBF800200CF1010C0A6808
:1007400032FA0CF27FF41BAFBDE8F88F08040140C9
:1007500000001110001002408068084201D0012002
:10076000704700207047002A01D0016170470904DA
:100770000161704701488068704700005000002008
:1007800070B50446002C04D094F83D00002510B14B
:1007900006E0012070BD84F83C50204600F006FBC6
:1007A000242084F83D002068016821F001010160E7
:1007B0002068016841F4004101602068016821F46B
:1007C0000041016000F086FC544B6168994203D8F7
:1007D0005349884203D304E05249884201D20120A0
:1007E00070BD5149B0FBF1F12268D2F804C02CF081
:1007F0003F0C4CEA010CC2F804C062689A4201D86E
:100800004A1C07E04FF4967251434FF47A72B1FBE1
:10081000F2F14A1C2168D1F820C02CF03F0C42EACA
:100820000C020A626168994210D84900401EB0FB70
:10083000F1F2521CC2F30B02042A01D2042026E07A
:10084000B0FBF1F0401CC0F30B0020E0A268002ACE
:1008500050D001EBC10303EB0113A0F1010CBCFB71
:10086000F3F35B1C43F480431B051B0D4AD0002AA5
:100870004AD001EBC10202EB0111401EB0FBF1F0C6
:10088000401CC0F30B0040F4804040F4004021685D
:10089000CA6922F0FF0222F44F421043C861216A64
:1008A000E06901432068026822F0C0021143016040
:1008B000E168206901432068826822F0FF0222F487
:1008C000034211438160A169606901432068C268E5
:1008D00022F0FF021143C1602068016841F001016C
:1008E00001602564202084F83D00256384F83E5093
:1008F000002070BD01EB4103A0F1010CBCFBF3F340
:100900005B1CB1E70120C2E701EB4101401EB0FBD7
:10091000F1F0401CC0F30B00B7E70000A086010017
:1009200080841E0000093D0040420F002DE9F04F79
:1009300083B00446DDF830A0894617469846002665
:100940000296FFF717FF054694F83D00202803D0D4
:1009500003B00220BDE8F08F19230122B7492046D9
:10096000009501F0EEF818B103B00220BDE8F08F59
:1009700094F83C00012808D0012084F83C0020684D
:10098000016811F0010F04D007E003B00220BDE8B8
:10099000F08F016841F0010101602068016821F4D5
:1009A00000610160222084F83D00102084F83E00A0
:1009B00026646762A4F82A80608D2085A048E062E2
:1009C0002B4652464946204600F09CFF18B103B022
:1009D0000120BDE8F08F208D60B3012833D00228BC
:1009E00041D02068016841F480610160206841695C
:1009F00080690190208D2027002800F01481DFF805
:100A000044B2DFF8448246F2A819208D032800F290
:100A1000D680012837D002284DD0534600225946AF
:100A20002046009501F08DF8002872D003B0012017
:100A3000BDE8F08F2068416981690191016841F446
:100A400000710160D6E72068016821F480610160CF
:100A500072B62068416981690191016841F40071B1
:100A6000016062B6C6E72068016841F40061016078
:100A700072B62068416981690191016821F4806141
:100A8000016062B6B6E72A465146204601F044F9B5
:100A900018B103B00120BDE8F08F20680069616AD9
:100AA0000870606A401C6062208D401E2085608D49
:100AB000401E6085B3E0534600225946204600950B
:100AC00001F03FF818B103B00120BDE8F08F72B615
:100AD0002068016841F40071016020680069616A62
:100AE0000870606A401C6062218D491E2185618DFD
:100AF000491E618562B6216809690170606A401CFF
:100B00006062208D401E2085608D401E608586E0DD
:100B1000FFE72068016821F48061016072B62068F7
:100B20000069616A0870606A401C6062208D401E26
:100B30002085608D401E6085D8F80000B0FBF9F07C
:100B4000C0EBC00000EB800002900298401E0290B3
:100B5000029820B32068406910F0040FF5D0206897
:100B6000016841F40071016020680069616A0870E1
:100B7000606A401C6062218D491E2185618D491E7D
:100B8000618562B6216809690170606A401C606213
:100B9000208D401E2085608D401E60853FE02663CD
:100BA00084F83D7084F83E60206C40F020002064A2
:100BB00062B684F83C6003B00120BDE8F08F2A469D
:100BC0005146204601F0A8F818B103B00120BDE855
:100BD000F08F20680069616A0870606A401C60627A
:100BE000208D401E81B22185608D401E6085206869
:100BF000426912F0040F12D0032903D1016821F4D5
:100C00008061016020680069616A0870606A401C48
:100C10006062208D401E2085608D401E6085208D85
:100C200000287FF4F2AE84F83D7084F83E6084F8CA
:100C30003C6003B00020BDE8F08F0000020010000F
:100C40000000FFFF040001005C0000202DE9F84FC8
:100C500004468A46904699460A9FFFF78BFD064652
:100C600094F83D00202802D00220BDE8F88F192317
:100C700001224C492046009600F063FF10B102208B
:100C8000BDE8F88F94F83C00012808D0012084F8D2
:100C90003C002068016811F0010F03D006E002203B
:100CA000BDE8F88F016841F001010160206801682A
:100CB00021F400610160212084F83D00102084F8B7
:100CC0003E0000252564C4F82480A4F82A90608D95
:100CD00020853548E06233463A465146204600F0CA
:100CE000A3FE10B10120BDE8F88F2068416980693A
:100CF0000090208D002846D032463946204601F02B
:100D00004EF850B1206C042804D12068016841F4E9
:100D1000007101600120BDE8F88F606A21680078E9
:100D20000861606A00F1010CC4F824C0608D401EA7
:100D30006085208D401E80B220852268516911F0A7
:100D4000040F0CD058B19CF800001061606A401C80
:100D50006062608D401E6085208D401E2085324679
:100D60003946204600F0BAFE50B1206C042804D168
:100D70002068016841F4007101600120BDE8F88F2E
:100D8000208D0028B8D12068016841F4007101600D
:100D9000202084F83D0084F83E5084F83C50002028
:100DA000BDE8F88F020010000000FFFF10B586B00C
:100DB0000021009101910291039100680F4988423E
:100DC0001AD10F4CA06940F00800A061A0696946E3
:100DD00000F008000490C020009012200190032031
:100DE00003900848FFF7BAFBE06940F40010E061A7
:100DF000E06900F40010049006B010BD00540040FB
:100E000000100240000C0140024881680278114441
:100E1000816070475000002010B50748016841F01C
:100E200010010160032000F07DF8002000F006F8BA
:100E300000F026F8002010BD0020024070B50446E6
:100E40000D4D4FF47A712878B1FBF0F00B49096829
:100E5000B1FBF0F000F028FD08B1012070BD102CAE
:100E600007D200222146501E00F028F86C600020B6
:100E700070BD012070BD0000500000205C0000200B
:100E80000C4808B5816941F001018161816901F077
:100E900001010091C16941F08051C161C06900F058
:100EA000805000900448416821F0E06141F00071F9
:100EB000416008BD001002400000014010B4184B12
:100EC0001B68C3F30223C3F1070CBCF1040F01D963
:100ED0004FF0040C1C1D072C01D2002300E0DB1E88
:100EE000012404FA0CFCACF1010C0CEA010199405C
:100EF00004FA03F35B1E1A401143002806DB00F1DD
:100F0000E020090180F8001410BC704700F00F00C9
:100F100000F1E020090180F8141D10BC70470000AA
:100F20000CED00E000F00700064A11684FF6FF03E1
:100F3000194041EA002040F0FD7040F080601060F0
:100F4000704700000CED00E02DE9F04704460D4627
:100F5000002C17D0DFF85C81D8F8000000F0070003
:100F6000A84212D2D8F8000020F007002843C8F8A1
:100F70000000D8F8000000F00700A84205D00120CA
:100F8000BDE8F0870120BDE8F08720684A4E10F0E8
:100F9000020F14D010F0040F03D0706840F4E0602A
:100FA0007060207810F0080F03D0706840F4605033
:100FB0007060706820F0F001A068084370602078CD
:100FC00010F0010F3AD06068012806D002280BD03B
:100FD000316811F0020F27D00AE0316811F4003FA8
:100FE00006D10120BDE8F087316811F0007F18D0EC
:100FF000716821F0030108437060FFF7BBFB0746EF
:101000007068616800F00C00B0EB810F16D041F2FF
:101010008839FFF7AFFBC01B484508D90320BDE85E
:10102000F0870120BDE8F0870120BDE8F0877068F7
:10103000616800F00C00B0EB810FEAD1D8F8000035
:1010400000F00700A8420FD9D8F8000020F00700F0
:101050002843C8F80000D8F8000000F00700A842B4
:1010600002D00120BDE8F087207810F0040F05D0F1
:101070007068E16820F4E06008437060207810F048
:10108000080F06D07068216920F4605040EAC10062
:10109000706000F02FF87168084AC1F30311515CC9
:1010A000C8400749086007480068FFF7C7FE0020EE
:1010B000BDE8F08700200240001002401A37000807
:1010C0005C000020540000200148006870470000C8
:1010D0005C00002000B5FFF7F7FF04494968044AA7
:1010E000C1F30221515CC84000BD00000010024065
:1010F0002A3700080E4B59680E4801F00C02042AEA
:1011000011D0082A0FD10C48C1F38342805C11F43E
:10111000803F09D05968094AC1F34041515C054AF2
:101120005043B0FBF1F07047054948437047000059
:101130000010024000127A000A3700080837000841
:1011400000093D002DE9F84F0446002C0FD020780F
:10115000F84D10F0010F6CD0686800F00C00042806
:101160000CD0686800F00C00082803D010E00120C3
:10117000BDE8F88F686810F4803F09D0286810F443
:10118000003F56D06068002853D10120BDE8F88F99
:101190006068B0F5803F15D0C8B1B0F5A02F1FD062
:1011A000286820F480302860286820F48020286097
:1011B000606858B3FFF7DEFA0646286810F4003F6F
:1011C00017D036E0286840F480302860F0E72868BF
:1011D00020F480302860286820F480202860E7E729
:1011E000286840F480202860286840F48030286017
:1011F000DEE7FFF7BFFA801B642802D90320BDE8B1
:10120000F88F286810F4003FF3D012E0FFF7B2FA2D
:101210000646286810F4003F0BD0FFF7ABFA801B9E
:10122000642802D90320BDE8F88F286810F4003F35
:10123000F3D12078C04F10F0020F4FF0010B4FF0A8
:10124000000854D0686810F00C0F14D0686800F0E3
:101250000C00082803D1686810F4803F0BD0206987
:1012600078B3C7F800B0FFF785FA0646286810F093
:10127000020F12D01DE0286810F0020F05D020697F
:10128000012802D00120BDE8F88F2868616920F0AC
:10129000F80040EAC100286029E0FFF76BFA801BE4
:1012A000022802D90320BDE8F88F286810F0020F49
:1012B000F3D02868616920F0F80040EAC100286096
:1012C00015E0FFE7C7F80080FFF754FA06462868E4
:1012D00010F0020F0BD0FFF74DFA801B022802D945
:1012E0000320BDE8F88F286810F0020FF3D12078B2
:1012F00010F0080F30D09148A169C1B1C0F800B01A
:10130000FFF738FA0646686A10F0020F0BD1FFF7B4
:1013100031FA801B022802D90320BDE8F88F686AE1
:1013200010F0020FF3D0012000F0B6FD14E0C0F879
:101330000080FFF71FFA0646686A10F0020F0BD014
:10134000FFF718FA801B022802D90320BDE8F88FA6
:10135000686A10F0020FF3D1207810F0040F6FD0FC
:101360000026E86910F0805F08D1E86940F08050FD
:10137000E861E86900F0805000900126DFF8C0A124
:10138000DAF8000010F4807F1BD1DAF8000040F496
:101390008070CAF80000FFF7EDF98146DAF8000026
:1013A00010F4807F0DD1FFF7E5F9A0EB0900642868
:1013B00002D90320BDE8F88FDAF8000010F4807F2E
:1013C000F1D0E068012816D0D0B1052821D0286AD4
:1013D00020F001002862286A20F004002862E068FA
:1013E00041F2883A68B3FFF7C5F98146286A10F0E0
:1013F000020F17D03AE0286A40F001002862EEE7B9
:10140000286A20F001002862286A20F0040028627F
:10141000E5E7286A40F004002862286A40F00100ED
:101420002862DCE7FFF7A6F9A0EB0900504502D9D6
:101430000320BDE8F88F286A10F0020FF2D015E003
:101440001AE0FFE7FFF796F98146286A10F0020FCD
:101450000CD0FFF78FF9A0EB0900504502D903200B
:10146000BDE8F88F286A10F0020FF2D1012E03D1E7
:10147000E86920F08050E861E069E8B3696801F04C
:101480000C0108295ED0022810D0C7F86080FFF751
:1014900071F90446286810F0007F66D0FFF76AF9FA
:1014A000001B022841D90320BDE8F88FC7F86080EF
:1014B000FFF760F90646286810F0007F0BD0FFF7B1
:1014C00059F9801B022802D90320BDE8F88F28684B
:1014D00010F0007FF3D1206AB0F5803F05D1686835
:1014E000A16820F4003008436860616A206A0843FC
:1014F000696821F4741100E037E008436860C7F8B8
:1015000060B0FFF737F90446286810F0007F2CD14F
:10151000FFF730F9001B022802D90320BDE8F88F3D
:10152000286810F0007FF3D01FE0286810F0007FDB
:10153000B4D11AE00010024000004242800442424E
:101540000070004001280DD06868226A00F48031E4
:10155000914204D1616A00F47010884205D00120E4
:10156000BDE8F88F0120BDE8F88F0020BDE8F88FB6
:1015700070B50446002C09D0606A002540B1256191
:101580006561A56294F8510040B10CE0012070BD86
:101590006068B0F5827FF4D0E561F2E784F85050DE
:1015A000204600F03FF8022084F8510020680168CE
:1015B00021F040010160A088218900F4827001F4CB
:1015C00004410843A18901F400610843217C01F032
:1015D00002010843217D01F001010843218B01F440
:1015E00000710843217F01F03801084394F820106E
:1015F00001F080010843218D01F400510843216866
:101600000860A169042000EA114021684860206850
:10161000C16921F40061C1616565012084F8510050
:10162000002070BD30B585B0002400940194029470
:10163000039400681549884225D11548C16941F4D1
:101640008041C161C16901F480410491816941F027
:101650000801816180690F4D00F0080004904FF48B
:101660002040009002200190032003906946284604
:10167000FEF774FF4FF48040CDE900046946284628
:101680000294FEF76BFF05B030BD0000003800404B
:1016900000100240000C01402DE9F84F04460A9E5C
:1016A0008A46934698460125002794F85000012861
:1016B0000ED0012084F85000FFF75CF8814694F8C2
:1016C0005100616801280DD0B1F5827F07D102E099
:1016D0000220BDE8F88FA16809B9042802D00227CA
:1016E00000F0DBB8BAF1000F22D0BBF1000F1FD021
:1016F0005FEA08001CD094F85100042802D00520AD
:1017000084F8510000206065C4F838B0A4F83E8029
:10171000A4F83C80C4F830A0A4F83680A4F8348043
:10172000206460642068016811F0400F02D005E079
:101730000127B2E0016841F040010160E068B0F5C6
:10174000006F06D0606800284CD0B8F1010F49D076
:1017500081E0606810B1B8F1010F3CD1206B2168C5
:101760000088C860206B801C2063E08E401EE086ED
:1017700031E02068816811F0020F0DD0E18E59B17F
:10178000012D09D1216B0988C160206B801C206369
:10179000E08E401EE08600252068816811F0010F70
:1017A0000BD0E18F49B1C068A16B0880A06B801C91
:1017B000A063E08F401EE0870125FEF7DBFFA0EB72
:1017C0000900B04207D3B6F1FF3F04D00327012040
:1017D00084F8510061E0E08E0028CAD1E08F002833
:1017E000C7D13EE0206B216800780873206B401C55
:1017F0002063E08E401EE0862DE02068816811F0B5
:10180000020F0DD0E18E59B1012D09D1216B09785C
:101810000173206B401C2063E08E401EE086002593
:101820002068816811F0010F0BD0E18F49B1C068C9
:10183000A16B0870A06B401CA063E08F401EE08786
:101840000125FEF797FFA0EB0900B04202D3B6F1E5
:10185000FF3F10D17EB1E08E0028CED1E08F00286E
:10186000CBD14A463146204600F028FB40B1012743
:101870002020606511E00327012084F851000CE06E
:10188000A06818B92068C16880680090606D08B1D0
:10189000012702E0012084F85100002084F8500064
:1018A0003846BDE8F88F0000401EB0F1807F01D3BC
:1018B000012070474FF0E0214861044AF020107089
:1018C00000208861072008610020704723ED00E0B8
:1018D000FEE701684A6912F4806F11D06FF48062EC
:1018E0004A6100210163202280F83D2080F83E10EB
:1018F000026C42F00402026480F83C100120704740
:10190000002070472DE9F84F04460D4691461E46CB
:10191000E06A21680A6842F480620A60082808D0F8
:10192000012806D010F5803F03D0206B112806D087
:101930000AE02068016841F48071016004E02068D9
:10194000016841F4807101604B4600224FF00111A3
:101950002046009600F0F5F84FF4007848B1206872
:10196000006810F4807F01D0C4F840800320BDE8F7
:10197000F88F2069DFF8ACA0B0F5804F11D0216856
:1019800005F44077F02040EAD710086133464A4614
:101990000AF10601204600F049F940B10120BDE8F6
:1019A000F88F2168E8B240F0010008612CE021685E
:1019B000E8B2086133464A465146204600F036F9FF
:1019C00010B10120BDE8F88F20684169816900915C
:1019D000016841F4807101604B4600224FF0011113
:1019E0002046009600F0ADF848B12068006810F479
:1019F000807F01D0C4F840800320BDE8F88F2168C3
:101A0000F12040EAD710086133464A465146204645
:101A100000F00CF910B10120BDE8F88F0020BDE8FE
:101A2000F88F000002000100F8B504460D46174685
:101A30001E46E06A082808D0012806D010F5803F2D
:101A400003D0206B122806D00AE02068016841F418
:101A50008071016004E02068016841F480710160D8
:101A60003B4600224FF001112046009600F069F835
:101A700048B12068006810F4807F02D04FF40070F5
:101A800020640320F8BD2069B0F5804F0FD005F425
:101A90004070F02141EAD0102168086133463A468F
:101AA0000C49204600F0C2F830B10120F8BD216891
:101AB00005F0FE00086102E02168E8B208613346E3
:101AC0003A460549204600F0B1F808B10120F8BDBA
:101AD0000020F8BD080001000200010070B50446B6
:101AE0000D4616462068406910F0040F18D12046B4
:101AF000FFF7EFFE08B1012070BDB5F1FF3F0AD03E
:101B0000FEF738FE801BA84200D825B9206840693E
:101B100010F0040F06D02068406910F0040FE6D0E2
:101B2000002070BD00202063202184F83D1084F83F
:101B30003E00216C41F02001216484F83C0001202A
:101B400070BD2DE9F0470446DDF820900D4617469C
:101B50001E46C5F307482068B8F1010F13D080690D
:101B600025EA00000004000C17D00020B8424DD137
:101B7000B6F1FF3F3DD0FEF7FDFDA0EB0900B042FE
:101B80000DD866B135E0406925EA00000004000C7C
:101B900001D00020EAE70120E8E70120E6E7B8F1FC
:101BA000010F19D02068806925EA00000004000CAC
:101BB0001DD00020B8421CD100202063202184F8D1
:101BC0003D1084F83E00216C41F02001216484F82E
:101BD0003C000120BDE8F0872068406925EA00004C
:101BE0000004000C01D00020E4E70120E2E701201E
:101BF000E0E7B8F1010F0CD02068806925EA000009
:101C00000004000C10D00020B842B1D00020BDE884
:101C1000F0872068406925EA00000004000C01D02C
:101C20000020F1E70120EFE70120EDE72DE9F04783
:101C300004460D4616469846C5F307472068012F0F
:101C400026D0806925EA00000004000C59D04FF02E
:101C500000094FF0200A2068406910F4806F1ED000
:101C60002068016841F40071016021686FF48060B0
:101C70004861C4F8309084F83DA084F83E90206C10
:101C800040F00400206484F83C900120BDE8F08717
:101C9000406925EA00000004000C32D0D7E7B6F115
:101CA000FF3F25D0FEF766FDA0EB0800B04200D84C
:101CB000F6B9012F15D02068806925EA00000004DC
:101CC000000C15D0C4F8309084F83DA084F83E9004
:101CD000206C40F02000206484F83C900120BDE896
:101CE000F0872068406925EA00000004000CE9D173
:101CF000012F09D02068806925EA00000004000C4B
:101D0000A9D10020BDE8F0872068406925EA0000DD
:101D10000004000C9FD1F4E72DE9F04104460D4684
:101D200016462068406910F0400F27D100274FF079
:101D300020082068406910F0100F0FD020686FF065
:101D400010014161276384F83D8084F83E70206C67
:101D5000206484F83C700120BDE8F081FEF70AFDA4
:101D6000801BA84200D825B92068406910F0400FB8
:101D700007D02068406910F0400FDAD00020BDE89D
:101D8000F081276384F83D8084F83E70206C40F039
:101D90002000206484F83C700120BDE8F08170B51B
:101DA00004460D4616462068406910F0800F18D191
:101DB0002046FFF78EFD08B1012070BDB5F1FF3F51
:101DC0000AD0FEF7D7FC801BA84200D825B92068AE
:101DD000406910F0800F06D02068406910F0800F35
:101DE000E6D0002070BD00202063202184F83D1043
:101DF00084F83E00216C41F02001216484F83C000D
:101E0000012070BD0B480A494FF4007201604FF485
:101E10008271416000218160C1600161C0E90512E9
:101E2000C1610162416281620A21C162FFF7A0BB08
:101E300000380040B4000020FEE7704770B5FEF7A0
:101E400036FA0CA20021042000F01DF801220C4DEE
:101E5000140221462846FEF786FC4FF4FA60FEF78E
:101E600069FB002221462846FEF77DFCBDE8704054
:101E7000FEF71DBA4F50454E20444F4F5200000010
:101E8000000C0140704710B51446FEF759FA204681
:101E9000BDE81040FEF7E7BA81B007494FF4FA52A7
:101EA0000968B1FBF2F14843009000BF0098411E61
:101EB0000091FAD201B070475C00002038B50446AA
:101EC0000B46009200228021204600F009F828B13C
:101ED000606D40F020006065032038BD002038BDF3
:101EE0002DE9F84304460F4690469946089DFEF7B3
:101EF00041FC401BA9EB0005FEF73CFC06462D48C3
:101F00000068C0F3CB30684300902068806837EAEF
:101F100000000ED00020404546D0B9F1FF3F3BD035
:101F2000FEF728FC801BA84205D225B1009870B3AB
:101F30002FE00120EFE72068416821F0E0014160D7
:101F40006068B0F5827F0BD1A068B0F5004F02D079
:101F5000B0F5806F04D12068016821F04001016074
:101F6000A06AB0F5005F09D12068016821F4005132
:101F700001602068016841F400510160012084F88B
:101F80005100002084F850000320BDE8F883FFE7EB
:101F900000250098401E00902068806837EA000005
:101FA00005D000204045B8D10020BDE8F8830120CD
:101FB000F8E700005C000020704700002DE9F047C2
:101FC000284EDFF8A480DFF8A4900025A6F12C07A6
:101FD000A6F1400A37F8151000224846FEF7C3FB69
:101FE0005FF00004404636F81410FEF7B5FB98B1D8
:101FF000641CE4B2042CF5D300218AF8031037F8EE
:10200000151001224846FEF7AEFB6D1CEDB2032D04
:10201000E0D30020BDE8F087012211464F46484634
:10202000FEF7A1FB3220FEF785FA00220121384697
:10203000FEF799FB01218AF8031000BF36F814104F
:102040004046FEF789FB0028F8D0094904EB44001C
:1020500008440122445D38213846FEF784FB2046BF
:10206000D8E700004000002000080140000C0140BB
:10207000FC360008FEF7C8BE30B58FB02821684690
:10208000FEF767F814210AA8FEF763F8012002257D
:1020900004900095102005900024CDE9075468466F
:1020A0000994FFF74FF80F20CDE90A056802CDE942
:1020B0000C4000210AA80E94FEF746FF0FB030BD79
:1020C0000E48016841F00101016041680C4A11406D
:1020D0004160016821F4102121F0807101600168E4
:1020E00021F480210160416821F4FE0141604FF438
:1020F0001F0181600349C00308607047001002405F
:102100000000FFF808ED00E010B5142000F05AF8C8
:10211000800705D10321BDE81040142000F09AB8D3
:1021200010BD7CB50446002529460D2000F028F995
:10213000932020702020607001A823460090022286
:1021400019460C2000F092F8010009D1225C401CD5
:102150005540C0B20428F9D3205CA84200D0022127
:1021600008467CBD70B50C46054600F02BF820EA09
:1021700004012846BDE8704000F002B910B500F037
:1021800056F88D212A2000F0FBF83E212B2000F08C
:10219000F7F81E212D2000F0F3F800212C2000F08C
:1021A000EFF87021262000F0EBF84021152000F018
:1021B000E7F83D21112000F0E3F8BDE81040FFF7FB
:1021C000A3BF000070B50D4E04464FF480550022A9
:1021D00029463046FEF7C7FA7E2000EA440040F068
:1021E000800000F0EBF8002000F0E8F8044601223F
:1021F00029463046FEF7B7FA204670BD000C014074
:102200007CB50C46054607210D2000F0B9F8257075
:1022100001A823460090012219460C2000F026F860
:1022200018B9BDF80410102900D002207CBD10B5EB
:102230000F21012000F0A4F800243220FEF77AF9E3
:102240000120FFF7BFFFC00603D5641CE4B2032CD6
:10225000F3D310BD70B50C460546FFF7B3FF40EA57
:1022600004012846BDE8704000F08AB82DE9FF5F00
:1022700000270226DDF838A015468B468146B84671
:102280000C2805D0B9F10E0F05D11227102001E05E
:1022900077273020804647F08001022000F070F858
:1022A00080210420FFF75EFF80210A20FFF7D2FF84
:1022B0000021012000F064F8002406E01BF804105F
:1022C000092000F05DF8641CA4B2AC42F6D3494684
:1022D000012000F055F8B9F10C0F03D180210D2039
:1022E000FFF7B8FF4FF4FA650420FFF76BFF6D1E90
:1022F0002D0404462D0C04D0E00702D114EA080F87
:10230000F2D080210D20FFF72DFF35B10620FFF719
:1023100059FF10F01B0F04D0022604B03046BDE870
:10232000F09F00263C40E00700D00126B9F10C0FD9
:10233000F3D10A20FFF746FF04460C20FFF742FFC7
:1023400010F007004FEAC40104D008390844AAF885
:10235000000001E0AAF8001024B1102C04D91024C8
:10236000002503E00124FBE7002506E00920FFF734
:1023700029FF039948556D1CADB2A542F6D3CCE7B1
:102380002DE9F0410C4E0F4604464FF480550022D3
:1023900029463046FEF7E7F97E2000EA440000F0C7
:1023A0000DF8384600F00AF829463046BDE8F041FD
:1023B0000122FEF7D8B90000000C01403EB50B4CDD
:1023C0008DF80400206881688907FCD50A200090F8
:1023D000012302AA01A90548FFF75EF92068816878
:1023E0000906FCD49DF808003EBD0000B4000020A2
:1023F000FEE700000FB4084B10B504A902AA039829
:1024000000F01CF8044602A9002000F077F92046ED
:1024100010BC5DF814FB0000FD26000802E008C8AF
:10242000121F08C1002AFAD170477047002001E04E
:1024300001C1121F002AFBD1704700002DE9FF4F98
:102440008DB09B460F460446002606E025280BD09B
:102450005A460F999047641C761C20780028F5D1C5
:1024600011B03046BDE8F08F0025A84601229849FA
:1024700000E0054314F8013F203B02FA03F0084254
:10248000F7D120782E2817D114F8010F45F0040554
:102490002A280ED06FF02F022078A0F130010929F0
:1024A0000AD808EB880102EB410100EB0108641C2B
:1024B000F2E757F8048B641C20786C280DD004DCFC
:1024C0004C2812D06A2811D104E074280DD07A2843
:1024D0000CD10AE045F4001507E0617845F4801559
:1024E000814202D1641C05F58015641C2278692A9A
:1024F00045D008DC002AB3D0582A69D0632A10D00E
:10250000642A08D13BE0702A67D0732A13D0752A59
:102510005CD0782A5CD010465A460F999047761CBA
:10252000D3E017F8040B8DF8000000208DF80100AF
:10253000E946012003E057F8049B4FF0FF3069079C
:102540004FF0000501D40AE06D1C45450DDA8542C7
:10255000FADB19F805100029F6D106E06D1C85425A
:10256000FCDB19F805100029F8D12E4404E019F815
:10257000010B5A460F9990476D1EF8D2A5E00A202C
:102580000021CDE90801C5F3025002280DD001CF8A
:10259000C117031E71F100030DDA4FF0000CD0EBF0
:1025A0000C006CEB01012D2308E0FF1D27F007074D
:1025B000F7E80201EDE72B0504D52B238DF8283031
:1025C00001233BE0EB0739D02023F7E70A2000E0A6
:1025D00010200021CDE9080107E01020002145F07E
:1025E0000405CDE908014FF00808C5F302500228A0
:1025F0000FD001CF00214FF0000A2B071FD5702A02
:102600000DD0DDE908C38CF0100C5CEA030C0CD093
:1026100015E0FF1D27F00707F7E80201EBE740226E
:102620008DF828204FF0010A0BE050EA010306D094
:1026300030238DF828308DF8292002239A46582A15
:1026400004D024A20DF120090B9209E026A2F9E79B
:10265000DDE90823FDF79FFD0B9B9B5C09F8013D1D
:1026600050EA0102F4D1ADEB090020300890680770
:1026700001D44FF001080899884502DDA8EB01005C
:1026800000E000208046002506E00AA85A46405D8A
:102690000F9990476D1C761C5545F6DB04E0302001
:1026A0005A460F999047761CB8F10001A8F101082D
:1026B000F5DC05E019F8010B5A460F999047761C96
:1026C0000899481E08900029F4DC641CC5E6000047
:1026D00009280100303132333435363738396162F8
:1026E00063646566000000003031323334353637BC
:1026F0003839414243444546000000000A68531CF3
:102700000B601070704700002DE9F0411C4E012253
:1027100080213046FEF727F81A4F0122114638462D
:10272000FEF721F8FDF7C3FD002117A20846FFF7C9
:10273000AAFB19A201210020FFF7A5FBFEF71AF85A
:10274000044641F2883500BFFEF714F8001BA8428A
:1027500003D2FFF733FC0028F6D000228021304658
:10276000FEF701F8002201213846FDF7FCFFFDF7D6
:102770009EFDBDE8F04100210CA20120FFF783BBC4
:1027800000080140000C0140536169204D61742034
:102790004B686175000000004E686170204C6169F3
:1027A000204D6174204B6861750000004D4F492039
:1027B0004E484150204B4559000000002DE9F041A2
:1027C0008AB0FDF774FD002138A20846FFF75BFBD5
:1027D0003AA201210020FFF756FB0024FDF7CAFFB3
:1027E0000646012280213748FDF7BDFF4EF66027DF
:1027F0004FF47A78FDF7BEFF851BBD420ED3FDF77F
:1028000056FD002130A20846FFF73DFB052000F0F1
:1028100059FFFDF74CFD0AB0BDE8F081B5FBF8F0BB
:10282000A04208D1641DE0B22CA20121FFF72BFBCE
:10283000B5FBF8F4641C03A95220FFF7E1FC002863
:10284000D8D103A8FFF76DFC0028D3D19DF80E0066
:102850009DF810209DF80F108DE807009DF80D30B1
:102860009DF80C201EA105A8FFF7C4FD002105AAB4
:102870000846FFF708FB1EA201210020FFF703FB1B
:10288000FFF79CFB2A2809D02328F9D1FDF70FFD7B
:1028900000211CA20846FFF7F6FABCE700F0DAFABE
:1028A00003A800F059FE00F0D5FAB4E74E68617055
:1028B00020546865204D6F69000000005741494E63
:1028C00054000000000801402D2D2D2054494D4595
:1028D000204F5554202D2D2D000000002D0000000C
:1028E00025782D25782D25782D25782D2578000023
:1028F0004F4B282A2920202043414E434528232995
:1029000000000000487579205468617920446F699F
:10291000000000002DE9FC41FDF7C9FC45A20021A3
:102920000320FFF7B0FA012280214548FDF71BFF85
:1029300044A201210020FFF7A6FA43A00024D0E919
:102940000010CDE90010FDF715FF05464EF6602793
:102950004FEA0D06FDF70EFF401BB8422BD2FFF7E2
:102960002DFB0028F6D0062C17D22A28F2D02328D7
:1029700023D03055641CE4B2FDF799FC2DA2002150
:102980000320FFF780FA32A201210020FFF77BFA33
:102990006A4601210420FFF776FA062CDAD10622D6
:1029A0002D49684600F028FA2B492F3950B10020F4
:1029B000087200F0B9FBBDE8FC81641EE4B22A2075
:1029C0003055D9E7087A401CC0B20872032814D3E6
:1029D000FDF76DFC002121A20846FFF754FA23A25F
:1029E00001210020FFF74FFA052000F06BFE0122C5
:1029F00007212248FDF73FFCDDE7FDF758FC0021E9
:102A00001FA20846FFF73FFA204C0122114620463C
:102A1000FDF7A9FE4FF44870FDF78CFD002201215F
:102A20002046FDF7A0FE1AA200210120FFF72BFA95
:102A3000C1E70000476F20546F204D656E750000A0
:102A4000000801404B45593A2A2A2A2A2A2A00001E
:102A50004B45593A000000002F00002053616920C7
:102A60005175612033204C616E0000004E6861702A
:102A7000204B65794D617374657200000C01002074
:102A8000536169207061737300000000000C014005
:102A90004D4F49204E484150204B45590000000001
:102AA0002DE9FC41FDF703FC3CA00024D0E9001017
:102AB000CDE90010FDF75EFE05463AA20021032095
:102AC000FFF7E1F93AA201210020FFF7DCF96A469D
:102AD00001210420FFF7D7F94EF660274FEA0D06D3
:102AE000FDF748FE401BB84208D3FDF7E0FB32A2D9
:102AF00000210120FFF7C7F9BDE8FC81FFF75EFA6E
:102B00000028EDD0062C18D22A28E9D023282FD06F
:102B10003055641C5FFA84F4FDF7C9FB21A2002143
:102B20000320FFF7B0F922A201210020FFF7ABF943
:102B30006A4601210420FFF7A6F9062CD0D1FDF743
:102B4000B6FB21A201210020FFF79DF9002118A268
:102B50000846FFF798F96A4600210420FFF793F929
:102B6000FFF72CFA2A2808D02328F9D11BA20AE063
:102B7000641EE4B22A203055CEE7684600F076FDA8
:102B8000012805D019A200210846FFF77CF9A7E724
:102B9000194800F0B7FA19A2F5E700002A2A2A2AF4
:102BA0002A2A00004E455720504153530000000090
:102BB0004B45593A000000004D4F49204E484150C6
:102BC000204B4559000000004F4B282A2920202087
:102BD00043414E43452823290000000048757920D1
:102BE0005468617920446F690000000020546861D6
:102BF00074204261690000002F00002020546861A9
:102C00006E6820436F6E6700000000007CB50546CB
:102C10001424A1B2684600F041FA012806D12946E1
:102C2000684600F0F8F808B101207CBD641D322C24
:102C3000EFDB00207CBD7CB505461424A1B26846BC
:102C400000F02CFA012806D12946684600F0E3F886
:102C500008B100207CBD641D322CEFDB01207CBD5F
:102C60002DE9FC4107214D48FDF7EBFA01274C4DBA
:102C7000012803D0AF706F70BDE8FC810020A87000
:102C80006870FDF714FB012000F01CFD45A1002435
:102C9000D1E90001CDE9000144A221460120FFF75E
:102CA000F2F845A201210020FFF7EDF86A46012164
:102CB0000420FFF7E8F8E846FFF780F90600FBD0AC
:102CC000012280213E48FDF74EFD062C19D22A2E06
:102CD000F2D0232E2DD008F80460641C5FFA84F42F
:102CE000FDF7E5FA31A200210120FFF7CCF832A26E
:102CF00001210020FFF7C7F86A4601210420FFF7F1
:102D0000C2F8062CD8D1264906221A31684600F0AE
:102D100073F8A0B1FF2207212048FDF7ACFAAF708D
:102D20006F70FDF7C4FA27A200210120FFF7ABF86E
:102D3000A2E7641EE4B22A2108F80410D0E718497B
:102D4000002428316846FDF71DFA002121A208461B
:102D5000FFF799F824A201210020FFF794F8254EEF
:102D6000012211463046FDF7FEFC4FF4FA70FDF7E4
:102D7000E1FB002201213046FDF7F5FC0BA200210A
:102D80000120FFF780F80CA201210020FFF77BF85B
:102D90006A4601210420FFF776F88DE70C01002038
:102DA000000000202A2A2A2A2A2A00005F5F576191
:102DB000726E696E675F5F004B45593A0000000014
:102DC000000801404D4F49204E484150204B455985
:102DD000000000005361692050617373204D6173DE
:102DE00074657200000000004E686170204C6169DB
:102DF00000000000000C014070B50124002306E033
:102E0000C55CCE5CB54200D000245B1CDBB29342B3
:102E1000F6D3E0B270BD30B501230022845C8D5C36
:102E2000AC4200D00023521C052AF7DBD8B230BDDB
:102E30001FB50020029041F6015000900120019042
:102E40000220039069460248FDF788FB1FBD000081
:102E5000000C014070B5064D14240548A1B20C3891
:102E6000FDF7EFF92855641C322CF6DB70BD00002D
:102E7000180100207FB5064614244FF47A75A1B2DC
:102E8000684600F00BF9012805D169463046FFF786
:102E9000C2FF012803D0641D322CF0DB3CE0240487
:102EA000240C39D0FF2221462148FDF7E4F9601CAB
:102EB00081B2FF221E48FDF7DEF9A01C81B2FF227D
:102EC0001B48FDF7D8F9E01C81B2FF221848FDF736
:102ED000D2F9201D81B2FF221548FDF7CCF932202E
:102EE000FDF728FB214602A800F0D8F840B1FDF715
:102EF000DEF900210FA20846FEF7C5FF04B070BD41
:102F0000FDF7D5F900210EA20846FEF7BCFF2846C2
:102F1000FDF710FB0120F1E7FDF7C9F900210CA234
:102F20000846FEF7B0FF2846FDF704FB0020E5E762
:102F30000C0100204C6F69204B686920586F6100BC
:102F4000586F61205468616E6820436F6E6700009F
:102F5000546865204B686F6E6720546F6E20546113
:102F60006900000030B589B0FDF7A1F900212CA25D
:102F70000846FEF788FFFDF7FDFB0446012280218D
:102F80002C48FDF7F0FB4EF6602500BFFDF7F2FB85
:102F9000001BA8420DD3FDF78AF9002126A208469E
:102FA000FEF771FF052000F08DFBFDF780F909B0F9
:102FB00030BD03A95220FFF723F90028E6D103A86A
:102FC000FFF7AFF80028E1D19DF80E009DF8102022
:102FD0009DF80F108DE807009DF80D309DF80C202E
:102FE0001AA105A8FFF706FA002105AA0846FEF770
:102FF0004AFF1AA201210020FEF745FFFEF7DEFF7F
:103000002A2809D02328F9D1FDF751F9002118A267
:103010000846FEF738FFCAE703A8FFF72BFFC6E70D
:103020004E484150205448452043414E20584F417E
:1030300000000000000801402D2D2D2054494D4571
:10304000204F5554202D2D2D0000000025782D25D2
:10305000782D25782D25782D2578000044454C289D
:103060002A29202043414E434528232900000000FF
:10307000487579205468617920446F690000000028
:103080001CB51424A1B2684600F008F820B1641DF4
:10309000322CF7DB00201CBDA0B21CBD70B504466D
:1030A0000D461748FDF7CDF82070681C81B2144812
:1030B000FDF7C7F86070A81C81B21148FDF7C1F890
:1030C000A070E81C81B20E48FDF7BBF8E0702D1D22
:1030D000A9B20B48FDF7B5F820712178FF290AD174
:1030E0006178FF2907D1A178FF2904D1E178FF2970
:1030F00001D1FF2801D0012070BD002070BD00006B
:103100000C01002070B505465FF0000404F10A00D0
:1031100081B20448FDF795F82855641CA4B2062C2A
:10312000F4D370BD0C01002070B50122802122482B
:10313000FDF719FBFDF7BBF8002120A20846FEF7BA
:10314000A2FE22A201210020FEF79DFEFDF712FB48
:10315000054600244EF66026FDF70CFB401BB042EE
:1031600028D2FEF72BFF0028F6D04CB1012CF3D16A
:1031700031281BD03228EFD1BDE87040FFF7F2BEF6
:1031800031280FD03228E7D10124FDF790F8002133
:1031900012A20846FEF777FE15A201210020FEF7D5
:1031A00072FED9E7BDE87040FFF77ABCBDE8704019
:1031B000FFF704BB70BD000000080140312E204322
:1031C00048414E474520504153530000322E204382
:1031D00048414E474520524649440000312E204187
:1031E00044442043415244205246494400000000D8
:1031F000322E2044454C20434152442052464944FB
:103200000000000088B0FDF707FEFEF735FFFEF76F
:10321000F9FDAF48AD4900270160AE49C0E901178B
:103220004FF48041C0E9037147618761C76107625C
:10323000FDF7A6FAFDF72AF9FDF746F9FFF7F8FDC5
:1032400002211020FDF73EF8A1492023A02201F120
:10325000AC00FCF7F2FF6420FDF76CF99E48FFF725
:1032600051FFFFF7F7FDFEF789FF022000F02AFA71
:10327000FDF71DF899A200210120FEF704FEDFF8FA
:1032800058920126A9F10E09A9F12104DFF85CA2E8
:1032900004F10905FFF7E4FCFEF790FE2071002819
:1032A00065D06671E17801297AD12A2804D10320FA
:1032B00000F008FAFFF72EFBA17906291AD220792F
:1032C0002A2854D0232819D009F80100491CA171DB
:1032D000FCF7EDFF86A200210120FEF7D4FD88A2B5
:1032E00001210020FEF7CFFD7B4A01210E3A042088
:1032F000FEF7C9FDA079062809D038E00029E7D0FB
:10330000491EC8B2A0712A2209F80020E0E77249DC
:103310000622A1F10E00FFF76FFD10B160780128C1
:103320003FD0207A401C2072FFF7EEF9207A032864
:1033300014D3FCF7BCFF002173A20846FEF7A3FDDF
:1033400075A201210020FEF79EFD052000F0BAF9CC
:103350005F4801220721AC30FCF78DFFFDF78EF8A6
:103360005D49A771C91FC81FFCF70CFFE6716079A2
:10337000012826D0FDF7FEF9D4E90E12401A67EBBA
:10338000020141F28832801A71F100002CD3002230
:1033900080215046FDF7E7F9E07901281BD022E0B3
:1033A0000FE0FEF74BFD4C49A771C91FC81FFCF782
:1033B000E9FEE671277249A200210120FEF763FDB4
:1033C000D5E7012280215046FDF7CDF9FDF7D2F96E
:1033D000C4E90E0707E0FCF76AFF40A200210120C4
:1033E000FEF751FDE77167713B4952202139FEF725
:1033F00007FF207000287FF44DAF37482138FEF7D3
:1034000090FE20700028F6D133480122213801783F
:103410002970417869708178A970C178E970007964
:10342000287180215046FDF79EF9E671FCF73FFFB9
:103430003DA200210120FEF726FDE671A8782A7939
:10344000E9788DE807006B782A783BA103A8FEF79E
:10345000D1FF012103AA0846FEF715FD032000F065
:1034600031F91D482638FFF7D1FB012827D0FCF79A
:103470001EFFA8782A79E9788DE807006B782A780A
:103480002DA103A8FEF7B6FF03AA00210120FEF735
:10349000FAFC2DA201210320FEF7F5FCDFF8B48031
:1034A000012211464046FDF75EF94FF47A70FDF7B0
:1034B00041F8002201214046FDF755F9EAE6FEF702
:1034C000BDFC032000F0FEF8E4E6000000540040DC
:1034D00060000020A08601002F0000204D4F4920F1
:1034E0004E484150204B4559000000000008014063
:1034F000494E505554204B455920434F44450000F8
:103500004B45593A00000000536169205175612014
:1035100033204C616E0000004E686170204B65796D
:103520004D6173746572000043686561636B696E19
:10353000672052464944000025782D25782D2578AE
:103540002D25782D2578000046414C4C20434152D2
:1035500044000000000C01407CB50546FFF76BFB02
:1035600088B1FFF78DFD0446142815D2FCF79FFEA5
:1035700000212DA20846FEF786FC2DA20121002085
:10358000FEF781FC3CE0FCF792FE00212BA20846EE
:10359000FEF779FC2DA2F1E701462A782E48FCF7C8
:1035A0006AFE601C81B26A782B48FCF764FEA01C9E
:1035B00081B2AA782848FCF75EFEE01C81B2EA7866
:1035C0002548FCF758FE201D81B22A792248FCF7D5
:1035D00052FE21466846FFF761FDF8B1294668466C
:1035E000FFF719FC4FF47A7401280BD0FCF75FFE4B
:1035F000002112A20846FEF746FC2046FCF79AFF7F
:1036000000207CBDFCF753FE002114A20846FEF703
:103610003AFC2046FCF78EFF01207CBDFCF747FEFC
:1036200006A20021ABE700004552524F52000000B5
:1036300046554C4C2043415244000000536176658E
:103640002052464944204552524F5200446F756201
:10365000656C2043415244000C01002053617665A3
:103660002052464944204F4B000000007CB50546DF
:10367000002404F10A0081B22A5D1148FCF7FBFD29
:10368000641CA4B2062CF4D3002210210C48FCF7D1
:10369000F2FD00208DF806006846FFF733FD29464D
:1036A0006846FCF761FDC4B2FCF701FE2CB14FF493
:1036B0007A70FCF73FFF00207CBD01207CBD00003C
:1036C0000C01002070B5054600240B4E10E00122CD
:1036D00011463046FDF747F8C820FCF72BFF0022C3
:1036E00001213046FDF73FF86420FCF723FF641CFE
:1036F000AC42ECDB70BD0000000C014031323334D1
:1037000035363738392A302301020203040506070B
:1037100008090A0B0C0D0E0F10100000000000002D
:10372000000001020304060708090000000001026E
:10373000030400005437000800000020600000006F
:103740001C240008B437000860000020F0040000CA
:103750002C2400080001010000000000000000000F
:1037600000000000000000000800100020003132BE
:1037700033343536002A2A2A2A2A2A002A2A2A2AD3
:103780002A2A002020202020200000000000000025
:10379000000000000001000200040008000000001A
:1037A0000000000001000000100000000000000008
:0437B0000024F400FD
:04000005080000ED02
:00000001FF
