:020000040800F2
:10000000F004002001010008D71300089D13000828
:10001000D51300081F020008AD19000800000000F9
:100020000000000000000000000000001D15000896
:100030007D04000800000000E91300084D160008C8
:100040001B0100081B0100081B0100081B01000820
:100050001B0100081B0100081B0100081B01000810
:100060001B0100081B0100081B0100081B01000800
:100070001B0100081B0100081B0100081B010008F0
:100080001B0100081B0100081B0100081B010008E0
:100090001B0100081B0100081B0100081B010008D0
:1000A0001B0100081B0100081B0100081B010008C0
:1000B0001B0100081B0100081B0100081B010008B0
:1000C0001B0100081B0100081B0100081B010008A0
:1000D0001B0100081B0100081B0100081B01000890
:1000E0001B0100081B0100081B010008DFF80CD0F1
:1000F00000F074F800480047051E0008F0040020D6
:100100000648804706480047FEE7FEE7FEE7FEE7B1
:10011000FEE7FEE7FEE7FEE7FEE7FEE799160008CA
:10012000ED000008202A04DB203A21FA02F0002129
:10013000704721FA02F3D040C2F1200291400843F7
:1001400019467047D2B201E000F8012B491EFBD2DC
:1001500070470022F6E710B513460A4604461946D2
:10016000FFF7F0FF204610BD034611F8012B00F801
:10017000012B002AF9D1184670472DE9F05F05469A
:10018000002092469B4688460646814640241BE056
:100190002846414647462246FFF7C4FF53465A4683
:1001A000C01A914110D311461846224600F028F893
:1001B0002D1A67EB01084F4622460120002100F06E
:1001C0001FF817EB00094E41201EA4F10104DFDCEB
:1001D000484631462A464346BDE8F09F064C074D47
:1001E00006E0E06840F0010394E807009847103407
:1001F000AC42F6D3FFF77EFFE020000800210008A4
:10020000202A04DB203A00FA02F1002070479140D6
:10021000C2F1200320FA03F3194390407047FEE730
:1002200010B50021012000F061F8BDE81040052064
:1002300000F026B910B51D4C207061702820607147
:100240000620A0700C20E07014202071322000F0F5
:1002500017F90021332000F049F80021332000F085
:1002600045F8052000F00CF90021322000F03EF89E
:10027000052000F005F9A078002100F037F8E078BB
:10028000002100F033F82079002100F02FF8607988
:10029000002100F02BF80021012000F027F80021B8
:1002A000BDE81040022000F021B800002800002026
:1002B00008B50CA2126800920B4A1378834201D849
:1002C0005B1ED8B252788A4201D8521ED1B21DF8B4
:1002D00001100844C0B240F08000002100F006F890
:1002E00008BD0000004014542800002070B5050926
:1002F000364E0446012901D011B106E0012200E08A
:1003000000220121304600F0D4F905F00102082155
:10031000304600F0CEF9C5F340021021304600F01F
:10032000C8F9C5F380022021304600F0C2F9EA087E
:100330004021304600F0BDF900220421304600F093
:10034000B8F9012000F09CF801220421304600F0A9
:10035000B0F9012000F094F800220421304600F0AA
:10036000A8F9012000F08CF804F0010208213046C1
:1003700000F09FF9C4F340021021304600F099F9D3
:10038000C4F380022021304600F093F9C4F3C00288
:100390004021304600F08DF900220421304600F063
:1003A00088F9012000F06CF801220421304600F0A9
:1003B00080F9012000F064F800220421304600F0AA
:1003C00078F9BDE87040012000F05AB800080140FB
:1003D0000121FFF78BBF10B5044602E0641CFFF754
:1003E000F7FF20780028F9D110BD00000C4800B5B7
:1003F000816985B041F0040181618069694600F03E
:100400000400049000200290FF2000900120019041
:1004100003200390034800F047F805B000BD00003A
:100420000010024000080140114810B5816986B0F3
:1004300041F0080181618069002400F00800049007
:100440004FF4706000900120CDE901040320039077
:100450006946084800F028F83820CDE90004022059
:1004600002906946044800F01FF806B010BD000075
:100470000010024000080140000C014070470000DD
:1004800070B5044600F01CF90546B4F1FF3F02D0F8
:1004900004480078044400F013F9401BA042FAD34A
:1004A00070BD0000300000202DE9F84F4FF0000C27
:1004B00000230A68002A7DD0DFF8DC810F27A8F12D
:1004C000040A08F10409AAF1040B012202FA0CF64D
:1004D0000A683240B2426ED1DFF8C0E14C68A4EB4A
:1004E0000E0574452BD00DDC032C34D005DC34B361
:1004F000012C19D0022C2FD11BE0112C16D0122C5C
:100500002AD119E0B5F5881F19D006DCB5F5803F72
:1005100015D0B5F5801F1FD111E0B5F5001F0ED025
:10052000B5F5041F18D10AE0CB6815E0CB681B1D98
:1005300012E0CB6808330FE0CB680C330CE08B681B
:1005400023B1012B04D00823466105E0042303E016
:100550000823066100E00023B2F5807F01D2054642
:1005600001E000F1040502D24FEA8C0403E0ACF193
:1005700008044FEA84042E6807FA04FE26EA0E06F1
:1005800003FA04F446EA04042C604C6814F0805F1B
:1005900079D0434CA56945F00105A561A46904F033
:1005A000010400942CF0030404F1804404F5803429
:1005B000A66801E06EE066E04FEA8C754FEA1575BB
:1005C00007FA05FE26EA0E0EA0F18046B6F584363F
:1005D0001ED0A0F18046B6F586361BD0A0F180462D
:1005E000B6F5883618D0A0F18046B6F58A3615D013
:1005F000042606FA05F545EA0E05A5604C6814F4D4
:10060000801F0DD0D8F800401443C8F800400CE01B
:100610000026EEE70126ECE70226EAE70326E8E7F4
:10062000D8F800409443C8F800404C6814F4001F08
:1006300005D0D9F800401443C9F8004004E0D9F8C7
:1006400000409443C9F800404C6814F4003F05D0C2
:10065000DAF800401443CAF8004004E0DAF8004039
:100660009443CAF800404C6814F4803F05D0DBF88E
:1006700000402243CBF8002005E0DBF8004024EAEC
:100680000202CBF800200CF1010C0A6832FA0CF2DD
:100690007FF41BAFBDE8F88F080401400000111083
:1006A000001002408068084201D0012070470020FD
:1006B0007047002A01D00161704709040161704749
:1006C00001488068704700003000002070B5044683
:1006D000002C04D094F83D00002510B106E0012064
:1006E00070BD84F83C50204600F0C6F8242084F801
:1006F0003D002068016821F0010101602068016867
:1007000041F4004101602068016821F4004101606A
:1007100000F046FA544B6168994203D85349884225
:1007200003D304E05249884201D2012070BD5149EF
:10073000B0FBF1F12268D2F804C02CF03F0C4CEA77
:10074000010CC2F804C062689A4201D84A1C07E052
:100750004FF4967251434FF47A72B1FBF2F14A1C96
:100760002168D1F820C02CF03F0C42EA0C020A624A
:100770006168994210D84900401EB0FBF1F2521C4A
:10078000C2F30B02042A01D2042026E0B0FBF1F0F0
:10079000401CC0F30B0020E0A268002A50D001EBFF
:1007A000C10303EB0113A0F1010CBCFBF3F35B1CD1
:1007B00043F480431B051B0D4AD0002A4AD001EBAD
:1007C000C10202EB0111401EB0FBF1F0401CC0F36E
:1007D0000B0040F4804040F400402168CA6922F0D8
:1007E000FF0222F44F421043C861216AE0690143CD
:1007F0002068026822F0C00211430160E1682069AC
:1008000001432068826822F0FF0222F40342114370
:100810008160A169606901432068C26822F0FF021B
:100820001143C1602068016841F001010160256445
:10083000202084F83D00256384F83E50002070BDE0
:1008400001EB4103A0F1010CBCFBF3F35B1CB1E72E
:100850000120C2E701EB4101401EB0FBF1F0401C5A
:10086000C0F30B00B7E70000A086010080841E00E3
:1008700000093D0040420F0010B586B000210091F4
:1008800001910291039100680F4988421AD10F4CDF
:10089000A06940F00800A061A069694600F0080066
:1008A0000490C0200090122001900320039008487B
:1008B000FFF7FAFDE06940F40010E061E06900F440
:1008C0000010049006B010BD00540040001002401B
:1008D000000C014002488168027811448160704731
:1008E0003000002010B50748016841F01001016098
:1008F000032000F07DF8002000F006F800F026F854
:10090000002010BD0020024070B504460D4D4FF48C
:100910007A712878B1FBF0F00B490968B1FBF0F06F
:1009200000F028FD08B1012070BD102C07D2002274
:100930002146501E00F028F86C60002070BD012098
:1009400070BD0000300000203C0000200C4808B5BD
:10095000816941F001018161816901F0010100912A
:10096000C16941F08051C161C06900F080500090C0
:100970000448416821F0E06141F00071416008BD28
:10098000001002400000014010B4184B1B68C3F374
:100990000223C3F1070CBCF1040F01D94FF0040C82
:1009A0001C1D072C01D2002300E0DB1E012404FAE9
:1009B0000CFCACF1010C0CEA0101994004FA03F3C0
:1009C0005B1E1A401143002806DB00F1E0200901FC
:1009D00080F8001410BC704700F00F0000F1E02018
:1009E000090180F8141D10BC704700000CED00E0F8
:1009F00000F00700064A11684FF6FF03194041EA6C
:100A0000002040F0FD7040F08060106070470000F2
:100A10000CED00E02DE9F04704460D46002C17D000
:100A2000DFF85C81D8F8000000F00700A84212D27D
:100A3000D8F8000020F007002843C8F80000D8F8D4
:100A4000000000F00700A84205D00120BDE8F087B3
:100A50000120BDE8F08720684A4E10F0020F14D044
:100A600010F0040F03D0706840F4E06070602078EC
:100A700010F0080F03D0706840F460507060706828
:100A800020F0F001A06808437060207810F0010F9A
:100A90003AD06068012806D002280BD0316811F0E6
:100AA000020F27D00AE0316811F4003F06D101207F
:100AB000BDE8F087316811F0007F18D0716821F02F
:100AC000030108437060FFF7FBFD0746706861682B
:100AD00000F00C00B0EB810F16D041F28839FFF71F
:100AE000EFFDC01B484508D90320BDE8F087012071
:100AF000BDE8F0870120BDE8F0877068616800F00C
:100B00000C00B0EB810FEAD1D8F8000000F007002C
:100B1000A8420FD9D8F8000020F007002843C8F8F1
:100B20000000D8F8000000F00700A84202D0012021
:100B3000BDE8F087207810F0040F05D07068E168F8
:100B400020F4E06008437060207810F0080F06D0B1
:100B50007068216920F4605040EAC100706000F0C4
:100B60002FF87168084AC1F30311515CC840074966
:100B7000086007480068FFF7C7FE0020BDE8F0875F
:100B80000020024000100240C62000083C00002067
:100B90003400002001480068704700003C0000203D
:100BA00000B5FFF7F7FF04494968044AC1F3022181
:100BB000515CC84000BD000000100240D620000873
:100BC0000E4B59680E4801F00C02042A11D0082A75
:100BD0000FD10C48C1F38342805C11F4803F09D0EF
:100BE0005968094AC1F34041515C054A5043B0FB82
:100BF000F1F070470549484370470000001002407B
:100C000000127A00B6200008B420000800093D0058
:100C10002DE9F84F0446002C0FD02078F84D10F045
:100C2000010F6CD0686800F00C0004280CD06868D4
:100C300000F00C00082803D010E00120BDE8F88F78
:100C4000686810F4803F09D0286810F4003F56D03F
:100C50006068002853D10120BDE8F88F6068B0F5C6
:100C6000803F15D0C8B1B0F5A02F1FD0286820F460
:100C700080302860286820F480202860606858B39D
:100C8000FFF71EFD0646286810F4003F17D036E037
:100C9000286840F480302860F0E7286820F480302D
:100CA0002860286820F480202860E7E7286840F45E
:100CB00080202860286840F480302860DEE7FFF755
:100CC000FFFC801B642802D90320BDE8F88F286848
:100CD00010F4003FF3D012E0FFF7F2FC064628685C
:100CE00010F4003F0BD0FFF7EBFC801B642802D907
:100CF0000320BDE8F88F286810F4003FF3D1207876
:100D0000C04F10F0020F4FF0010B4FF0000854D00D
:100D1000686810F00C0F14D0686800F00C00082808
:100D200003D1686810F4803F0BD0206978B3C7F80E
:100D300000B0FFF7C5FC0646286810F0020F12D07D
:100D40001DE0286810F0020F05D02069012802D0AC
:100D50000120BDE8F88F2868616920F0F80040EABA
:100D6000C100286029E0FFF7ABFC801B022802D9F4
:100D70000320BDE8F88F286810F0020FF3D0286830
:100D8000616920F0F80040EAC100286015E0FFE743
:100D9000C7F80080FFF794FC0646286810F0020FA1
:100DA0000BD0FFF78DFC801B022802D90320BDE881
:100DB000F88F286810F0020FF3D1207810F0080F98
:100DC00030D09148A169C1B1C0F800B0FFF778FCFC
:100DD0000646686A10F0020F0BD1FFF771FC801B0A
:100DE000022802D90320BDE8F88F686A10F0020FCC
:100DF000F3D0012000F002FB14E0C0F80080FFF700
:100E00005FFC0646686A10F0020F0BD0FFF758FC33
:100E1000801B022802D90320BDE8F88F686A10F011
:100E2000020FF3D1207810F0040F6FD00026E8698C
:100E300010F0805F08D1E86940F08050E861E8690F
:100E400000F0805000900126DFF8C0A1DAF8000021
:100E500010F4807F1BD1DAF8000040F48070CAF8EB
:100E60000000FFF72DFC8146DAF8000010F4807FC7
:100E70000DD1FFF725FCA0EB0900642802D903205F
:100E8000BDE8F88FDAF8000010F4807FF1D0E06858
:100E9000012816D0D0B1052821D0286A20F0010001
:100EA0002862286A20F004002862E06841F2883A4B
:100EB00068B3FFF705FC8146286A10F0020F17D0CF
:100EC0003AE0286A40F001002862EEE7286A20F044
:100ED00001002862286A20F004002862E5E7286AF9
:100EE00040F004002862286A40F001002862DCE734
:100EF000FFF7E6FBA0EB0900504502D90320BDE84F
:100F0000F88F286A10F0020FF2D015E01AE0FFE720
:100F1000FFF7D6FB8146286A10F0020F0CD0FFF7CE
:100F2000CFFBA0EB0900504502D90320BDE8F88FA4
:100F3000286A10F0020FF2D1012E03D1E86920F0E7
:100F40008050E861E069E8B3696801F00C010829A4
:100F50005ED0022810D0C7F86080FFF7B1FB0446CE
:100F6000286810F0007F66D0FFF7AAFB001B02285C
:100F700041D90320BDE8F88FC7F86080FFF7A0FBD8
:100F80000646286810F0007F0BD0FFF799FB801B06
:100F9000022802D90320BDE8F88F286810F0007FEE
:100FA000F3D1206AB0F5803F05D16868A16820F4CC
:100FB000003008436860616A206A0843696821F468
:100FC000741100E037E008436860C7F860B0FFF7CD
:100FD00077FB0446286810F0007F2CD1FFF770FBE8
:100FE000001B022802D90320BDE8F88F286810F002
:100FF000007FF3D01FE0286810F0007FB4D11AE022
:101000000010024000004242800442420070004052
:1010100001280DD06868226A00F48031914204D121
:10102000616A00F47010884205D00120BDE8F88F95
:101030000120BDE8F88F0020BDE8F88F70B50446A8
:10104000002C09D0606A002540B125616561A56268
:1010500094F8510040B10CE0012070BD6068B0F51B
:10106000827FF4D0E561F2E784F85050204600F02A
:101070003FF8022084F851002068016821F0400107
:101080000160A088218900F4827001F404410843C2
:10109000A18901F400610843217C01F002010843A9
:1010A000217D01F001010843218B01F40071084307
:1010B000217F01F03801084394F8201001F08001ED
:1010C0000843218D01F40051084321680860A1699B
:1010D000042000EA1140216848602068C16921F4B9
:1010E0000061C1616565012084F85100002070BD78
:1010F00030B585B0002400940194029403940068F4
:101100001549884225D11548C16941F48041C16122
:10111000C16901F480410491816941F00801816154
:1011200080690F4D00F0080004904FF420400090BB
:10113000022001900320039069462846FFF7B4F986
:101140004FF48040CDE90004694628460294FFF739
:10115000ABF905B030BD000000380040001002407F
:10116000000C01402DE9F84F04460A9E8A4693463A
:1011700098460125002794F8500001280ED0012040
:1011800084F85000FFF79CFA814694F8510061689A
:1011900001280DD0B1F5827F07D102E00220BDE821
:1011A000F88FA16809B9042802D0022700F0DBB843
:1011B000BAF1000F22D0BBF1000F1FD05FEA080088
:1011C0001CD094F85100042802D0052084F8510066
:1011D00000206065C4F838B0A4F83E80A4F83C80D4
:1011E000C4F830A0A4F83680A4F834802064606489
:1011F0002068016811F0400F02D005E00127B2E03D
:10120000016841F040010160E068B0F5006F06D070
:10121000606800284CD0B8F1010F49D081E06068C7
:1012200010B1B8F1010F3CD1206B21680088C86073
:10123000206B801C2063E08E401EE08631E0206839
:10124000816811F0020F0DD0E18E59B1012D09D145
:10125000216B0988C160206B801C2063E08E401EDA
:10126000E08600252068816811F0010F0BD0E18F26
:1012700049B1C068A16B0880A06B801CA063E08F9F
:10128000401EE0870125FFF71BFAA0EB0900B042E2
:1012900007D3B6F1FF3F04D00327012084F85100A3
:1012A00061E0E08E0028CAD1E08F0028C7D13EE07F
:1012B000206B216800780873206B401C2063E08E4F
:1012C000401EE0862DE02068816811F0020F0DD0ED
:1012D000E18E59B1012D09D1216B09780173206B81
:1012E000401C2063E08E401EE08600252068816857
:1012F00011F0010F0BD0E18F49B1C068A16B0870EC
:10130000A06B401CA063E08F401EE0870125FFF723
:10131000D7F9A0EB0900B04202D3B6F1FF3F10D1DC
:101320007EB1E08E0028CED1E08F0028CBD14A4696
:101330003146204600F074F840B101272020606556
:1013400011E00327012084F851000CE0A06818B9CF
:101350002068C16880680090606D08B1012702E0D4
:10136000012084F85100002084F850003846BDE880
:10137000F88F0000401EB0F1807F01D3012070473C
:101380004FF0E0214861044AF0201070002088618D
:10139000072008610020704723ED00E0FEE7000011
:1013A0000B480A494FF4007201604FF482714160AA
:1013B00000218160C1600161C0E90512C161016263
:1013C000416281620A21C162FFF738BE00380040E5
:1013D00094000020FEE7704700224FF400610148AE
:1013E000FFF767B9000C0140704710B51446FEF7CF
:1013F0005FFF2046BDE81040FEF7EDBF81B0074912
:101400004FF4FA520968B1FBF2F14843009000BF73
:101410000098411E0091FAD201B070473C000020B4
:1014200038B504460B46009200228021204600F089
:1014300009F828B1606D40F020006065032038BDD8
:10144000002038BD2DE9F84304460F4690469946E2
:10145000089DFFF735F9401BA9EB0005FFF730F9B0
:1014600006462D480068C0F3CB30684300902068E2
:10147000806837EA00000ED00020404546D0B9F120
:10148000FF3F3BD0FFF71CF9801BA84205D225B1D6
:10149000009870B32FE00120EFE72068416821F049
:1014A000E00141606068B0F5827F0BD1A068B0F5C3
:1014B000004F02D0B0F5806F04D12068016821F0A0
:1014C00040010160A06AB0F5005F09D120680168A1
:1014D00021F4005101602068016841F4005101606D
:1014E000012084F85100002084F850000320BDE85A
:1014F000F883FFE700250098401E00902068806870
:1015000037EA000005D000204045B8D10020BDE8F2
:10151000F8830120F8E700003C000020704700003D
:101520002DE9F047454E0020DFF81491454CDFF8D7
:1015300018A1707005464FF00108A9F1080700BF17
:1015400037F8151001225046FFF7B3F82021204646
:10155000FFF7A8F840B30122022127462046FFF7F3
:10156000A8F83220FEF78CFF86F80180002632466C
:1015700002213846FFF79DF8002408E03220641C61
:10158000FEF77EFF1E2C02DD032000F06DFD202102
:101590003846FFF787F80028F0D1032D3BD11E2CE9
:1015A00039DD00F08FFB36E010212046FFF77AF896
:1015B000B0B1012202212046FFF77BF83220FEF76E
:1015C0005FFF86F801800126002202212046FFF7F6
:1015D00070F810212046FFF765F80028F9D11AE0CD
:1015E00008212046FFF75EF8E0B1012202212046E3
:1015F000FFF75FF83220FEF743FF86F801800226EE
:10160000002231462046FFF754F808212046FFF714
:1016100049F80028F9D105EB450101EB0900805D8F
:10162000BDE8F08737F8151000225046FFF741F863
:101630006D1CEDB2042D83D30020F1E700000020E3
:10164000A8200008000C014000080140FFF742B943
:1016500030B58FB028216846FEF77BFD14210AA81B
:10166000FEF777FD012002250490009510200590DB
:101670000024CDE9075468460994FFF7C9FA0F2002
:10168000CDE90A056802CDE90C4000210AA80E94B4
:10169000FFF7C0F90FB030BD0E48016841F00101FD
:1016A000016041680C4A11404160016821F4102139
:1016B00021F080710160016821F48021016041689E
:1016C00021F4FE0141604FF41F0181600349C00312
:1016D00008607047001002400000FFF808ED00E0CD
:1016E00010B5142000F05AF8800705D10321BDE899
:1016F0001040142000F08BB810BD7CB504460025C6
:1017000029460D2000F01AF99320207020206070E7
:1017100001A823460090022219460C2000F083F80D
:10172000010009D1225C401C5540C0B20428F9D305
:10173000205CA84200D0022108467CBD70B50C4652
:10174000054600F02BF820EA04012846BDE8704069
:1017500000F0F4B810B500F056F88D212A2000F002
:10176000EDF83E212B2000F0E9F81E212D2000F09D
:10177000E5F800212C2000F0E1F87021262000F08F
:10178000DDF84021152000F0D9F83D21112000F0AE
:10179000D5F8BDE81040FFF7A3BF000070B50D4EAF
:1017A00004464FF48055002229463046FEF781FF5B
:1017B0007E2000EA440040F0800000F0DDF80020C8
:1017C00000F0DAF80446012229463046FEF771FFA0
:1017D000204670BD000C01407CB50C460546072133
:1017E0000D2000F0ABF8257001A8234600900122DF
:1017F00019460C2000F017F818B9BDF8041010298C
:1018000000D002207CBD0F21012000F097B870B5F8
:101810000C460546FFF7C2FF40EA04012846BDE832
:10182000704000F08BB82DE9FF5F00270226DDF83D
:1018300038A015468B468146B8460C2805D0B9F12C
:101840000E0F05D11227102001E0772730208046A7
:1018500047F08001022000F071F880210420FFF79A
:101860006DFF80210A20FFF7D2FF0021012000F048
:1018700065F8002406E01BF80410092000F05EF86B
:10188000641CA4B2AC42F6D34946012000F056F8DD
:10189000B9F10C0F03D180210D20FFF7B8FF4FF4F1
:1018A000FA650420FFF77AFF6D1E2D0404462D0C07
:1018B00004D0E00702D114EA080FF2D080210D20F5
:1018C000FFF73CFF35B10620FFF768FF10F01B0F54
:1018D00004D0022604B03046BDE8F09F00263C400C
:1018E000E00700D00126B9F10C0FF3D10A20FFF771
:1018F00055FF04460C20FFF751FF10F007004FEA98
:10190000C40104D008390844AAF8000001E0AAF88C
:10191000001024B1102C04D91024002503E0012468
:10192000FBE7002506E00920FFF738FF039948553B
:101930006D1CADB2A542F6D3CCE700002DE9F04115
:101940000C4E0F4604464FF480550022294630467F
:10195000FEF7AFFE7E2000EA440000F00DF83846A6
:1019600000F00AF829463046BDE8F0410122FEF7B2
:10197000A0BE0000000C01403EB50B4C8DF80400E9
:10198000206881688907FCD50A200090012302AAFB
:1019900001A90548FFF7E6FB206881680906FCD429
:1019A0009DF808003EBD000094000020FEE7000006
:1019B0000FB4084B10B504A902AA039800F01CF854
:1019C000044602A9002000F077F9204610BC5DF81B
:1019D00014FB0000B91C000802E008C8121F08C16F
:1019E000002AFAD170477047002001E001C1121FA0
:1019F000002AFBD1704700002DE9FF4F8DB09B46B8
:101A00000F460446002606E025280BD05A460F99BB
:101A10009047641C761C20780028F5D111B0304620
:101A2000BDE8F08F0025A8460122984900E0054353
:101A300014F8013F203B02FA03F00842F7D1207866
:101A40002E2817D114F8010F45F004052A280ED0CE
:101A50006FF02F022078A0F1300109290AD808EB95
:101A6000880102EB410100EB0108641CF2E757F822
:101A7000048B641C20786C280DD004DC4C2812D018
:101A80006A2811D104E074280DD07A280CD10AE01C
:101A900045F4001507E0617845F48015814202D1D4
:101AA000641C05F58015641C2278692A45D008DC81
:101AB000002AB3D0582A69D0632A10D0642A08D1EA
:101AC0003BE0702A67D0732A13D0752A5CD0782A3D
:101AD0005CD010465A460F999047761CD3E017F811
:101AE000040B8DF8000000208DF80100E94601206C
:101AF00003E057F8049B4FF0FF3069074FF00005F3
:101B000001D40AE06D1C45450DDA8542FADB19F86F
:101B100005100029F6D106E06D1C8542FCDB19F8A2
:101B200005100029F8D12E4404E019F8010B5A469B
:101B30000F9990476D1EF8D2A5E00A200021CDE94B
:101B40000801C5F3025002280DD001CFC117031EB2
:101B500071F100030DDA4FF0000CD0EB0C006CEBD0
:101B600001012D2308E0FF1D27F00707F7E8020118
:101B7000EDE72B0504D52B238DF8283001233BE01E
:101B8000EB0739D02023F7E70A2000E010200021DE
:101B9000CDE9080107E01020002145F00405CDE95A
:101BA00008014FF00808C5F3025002280FD001CFFA
:101BB00000214FF0000A2B071FD5702A0DD0DDE958
:101BC00008C38CF0100C5CEA030C0CD015E0FF1D70
:101BD00027F00707F7E80201EBE740228DF82820FD
:101BE0004FF0010A0BE050EA010306D030238DF8D4
:101BF00028308DF8292002239A46582A04D024A29E
:101C00000DF120090B9209E026A2F9E7DDE908238E
:101C1000FEF7B3FA0B9B9B5C09F8013D50EA010209
:101C2000F4D1ADEB090020300890680701D44FF0E3
:101C300001080899884502DDA8EB010000E00020BA
:101C40008046002506E00AA85A46405D0F99904755
:101C50006D1C761C5545F6DB04E030205A460F9982
:101C60009047761CB8F10001A8F10108F5DC05E009
:101C700019F8010B5A460F999047761C0899481E8F
:101C800008900029F4DC641CC5E600000928010066
:101C900030313233343536373839616263646566E2
:101CA00000000000303132333435363738394142A4
:101CB00043444546000000000A68531C0B60107046
:101CC000704700002DE9FC41FEF7AAFA31A200217D
:101CD0000320FFF78AFB012280213148FEF7E9FC4F
:101CE000052000F0C1F9FEF79BFA2EA20021032087
:101CF000FFF77BFB2FA201210020FFF776FB2FA12E
:101D0000D1E90001CDE90001FEF7DAFC0546002427
:101D10004EF660264FEA0D07FEF7D2FC401BB0429C
:101D200035D2FFF7FDFB0028F6D0062C17D223286A
:101D3000F2D02A28F0D03855641CE4B2FEF770FACD
:101D400018A200210320FFF750FB1AA20121002056
:101D5000FFF74BFB6A4601210420FFF746FB062CE8
:101D6000DAD106221749684600F03CF84FF47A743D
:101D700018B1FEF755FA14A202E0FEF751FA16A2C6
:101D800000210846FFF731FB2046FEF779FBBDE84E
:101D9000FC8100004348414E4745205041535300C9
:101DA000000801404E484150204D4154204B4841CD
:101DB000550000004B45593A000000002A2A2A2A03
:101DC0002A2A00001900002050415353204368691B
:101DD0006E682058616300005361692070617373FD
:101DE0000000000030B5002307E0C45CCD5CAC42CD
:101DF00001D0002030BD5B1CDBB29342F5D3012043
:101E000030BD000088B0FEF76DFDFFF721FC002516
:101E100077480095019502950395816941F0080185
:101E20008161816901F008010491816941F0040137
:101E3000816180696F4C00F00400049000224FF42F
:101E400080512046FEF735FC41F202000126CDE923
:101E500000060220CDE9025069462046FEF724FB29
:101E6000FFF79EFA6548644901606549C0E90115BC
:101E7000B103C0E9035145618561C5610562FEF7A3
:101E800025FCFEF7B3FAFEF7CFFA02211020FEF789
:101E9000D1F9FEF7C5F95BA200210120FFF7A5FAF1
:101EA000FFF758FC022000F0DFF85A4F5A4C00BFF1
:101EB000FFF736FBA070002841D0E6706178012959
:101EC00056D1217906291AD2232851D02A284FD059
:101ED000514A0B325054491C2171FEF7A1F94FA20F
:101EE00000210120FFF781FA50A201210020FFF715
:101EF0007CFA494A01210B320420FFF776FA207957
:101F000006281CD1444906221931A1F10E00FFF721
:101F100069FF30B1FFF760FA2571FEF781F945A23C
:101F200003E02571FEF77CF945A200210420FFF7AC
:101F30005CFA39491231C81FFEF716F96671E0786C
:101F4000012815D0FEF7BCFBD4E90812401A65EB56
:101F5000020141F28832801A71F100001BD3002285
:101F600080213846FEF7A5FB607901280AD011E0F0
:101F7000012280213846FEF79CFBFEF7A1FBC4E955
:101F8000080507E0FEF74CF91EA200210120FFF72B
:101F90002CFA6571E57020495220891DFFF71CFC61
:101FA0002070002884D11C48801DFFF7A6FB2070FC
:101FB0000028F7D1E6706671FEF732F923A20021FE
:101FC0000320FFF712FA14486671801D81780379A7
:101FD000C2788DE80E00437802781FA103A8FFF7AE
:101FE000E7FC012103AA0846FFF7FFF960E70000BC
:101FF00000100240000C014000540040400000204E
:10200000A08601004D4F49204E484150204B455974
:10201000000000000008014000000020494E50551B
:1020200054204B455920434F444500004B45593AF5
:10203000000000004F50454E20444F4F520000001A
:1020400050415353204552524F520000434F2054A9
:10205000484520524649440025782D25782D25787D
:102060002D25782D2578000070B5054600240B4EEF
:1020700010E0012202213046FEF71BFBC820FEF7CC
:10208000FFF9002202213046FEF713FB6420FEF721
:10209000F7F9641CAC42ECDB70BD0000000C0140A1
:1020A000000800040002000131323334353637387D
:1020B000392A3023010202030405060708090A0B26
:1020C0000C0D0E0F101000000000000000000102B7
:1020D00003040607080900000000010203040000D1
:1020E000002100080000002040000000D81900086E
:1020F0004021000840000020B0040000E81900085A
:1021000000000000000000000000002A2A2A2A2AFD
:102110002A002A2A2A2A2A2A003132333435360064
:1021200000000000000000000000000000000000AF
:102130000100000010000000000000000024F40076
:04000005080000ED02
:00000001FF
