:020000040800F2
:10000000C007002091010008A31600086915000828
:10001000A1160008BF040008851C000800000000AD
:10002000000000000000000000000000A117000810
:100030003907000800000000B5160008AD180008D8
:10004000AB010008AB010008AB010008AB010008E0
:10005000AB010008AB010008AB010008AB010008D0
:10006000AB010008AB010008AB010008AB010008C0
:10007000AB010008AB010008AB010008AB010008B0
:10008000AB010008AB010008AB010008AB010008A0
:10009000AB010008AB010008AB010008AB01000890
:1000A000AB010008AB010008AB010008AB01000880
:1000B000AB010008AB010008AB010008AB01000870
:1000C000AB010008AB010008AB010008AB01000860
:1000D000AB010008AB010008AB010008AB01000850
:1000E000AB010008AB010008AB01000800F002F80A
:1000F00000F03FF80AA090E8000C82448344AAF183
:100100000107DA4501D100F034F8AFF2090EBAE880
:100110000F0013F0010F18BFFB1A43F0010318473B
:10012000941E0000B41E0000103A24BF78C878C1A5
:10013000FAD8520724BF30C830C144BF04680C60ED
:10014000704700000023002400250026103A28BF35
:1001500078C1FBD8520728BF30C148BF0B60704739
:10016000782900F07D80002070471FB51FBD10B5B5
:1001700010BD00F066F91146FFF7F7FF01F0A2FD90
:1001800000F084F903B4FFF7F2FF03BC00F08CF930
:100190000948804709480047FEE7FEE7FEE7FEE71B
:1001A000FEE7FEE7FEE7FEE7FEE7FEE70448054957
:1001B000054A064B7047000001190008ED000008D1
:1001C000C0010020C0070020C0030020C0030020A1
:1001D0000FB41CB5074B06AA7B44694600900598EE
:1001E00000F017F90020694600F026F91CBC5DF804
:1001F00014FB00005D0200002DE9F0410E460446AC
:10020000002020622046E168884730B3252805D0C9
:10021000D4E901219047206A401CF2E7E1682046BA
:1002200000278847050018D0A5F14100192802D8F9
:1002300020354FF400673246294620462760FFF7F5
:100240008FFF40B1012804D0F61D26F007060836BE
:10025000D8E7361DD6E72846DAE7206ABDE8F08100
:1002600070B504460D4621461068AFF30080218822
:10027000090502D50F4A7A4402E00E4A7A440E324A
:10028000002104F1240305E000F00F060009965D4B
:100290005E54491C0028F7D120780023000704D5BC
:1002A000702D02D009B1022311322046BDE8704002
:1002B00000F050B8101D000040EA0103024630B5BE
:1002C0009B0710D14FF0013400E008C208C91D1B84
:1002D0009D4315EAC41FF8D013F0FF0102F8011B7B
:1002E0000DD01B0AF8E711F8013B002B02F8013B87
:1002F00005D011F8013B002B02F8013BF3D130BDD2
:100300004FF0000200B5134694469646203922BFAE
:10031000A0E80C50A0E80C50B1F12001BFF4F7AFF9
:10032000090728BFA0E80C5048BF0CC05DF804EBDB
:10033000890028BF40F8042B08BF704748BF20F849
:10034000022B11F0804F18BF00F8012B7047704747
:10035000704770472DE9F0470D469946924604468E
:1003600000F124080168880604D5E06921F0100135
:10037000216000E00120A84201DD471B00E00027CA
:10038000A1697A1902EB0900081AA0612078C00659
:1003900002D42046AFF30080002608E0D4E9012112
:1003A0001AF806009047206A401C761C20624E45D1
:1003B000F4DB2078C0060AD52046AFF3008006E0C3
:1003C000D4E9012130209047206A401C2062381E69
:1003D000A7F10107F4DC07E0D4E9012118F80500D2
:1003E0009047206A401C2062281EA5F10105F3DC1D
:1003F0002046AFF300802078000602D50220BDE839
:10040000F0870120FBE7000001694A1C02610878BF
:10041000704700B58FB0CDE9013100210591054944
:100420007944CDE9031011466846FFF7E5FE0FB0A9
:1004300000BD0000E5FFFFFF0A6802F8010B0A603B
:100440007047754600F02CF8AE46050069465346E5
:1004500020F00700854618B020B5FFF7A7FEBDE8DD
:1004600020404FF000064FF000074FF000084FF01B
:10047000000B21F00701AC46ACE8C009ACE8C009AC
:10048000ACE8C009ACE8C0098D46704710B5044619
:10049000AFF300802046BDE81040FFF773BE0000B8
:1004A000004870476001002001491820ABBEFEE7FC
:1004B0002600020070470160027243607047FEE749
:1004C00010B50021012000F061F8BDE810400520C2
:1004D00000F034B910B51D4C207061702820607197
:1004E0000620A0700C20E07014202071322000F053
:1004F00025F90021332000F049F80021332000F0D5
:1005000045F8052000F01AF90021322000F03EF8ED
:10051000052000F013F9A078002100F037F8E0780A
:10052000002100F033F82079002100F02FF86079E5
:10053000002100F02BF80021012000F027F8002115
:10054000BDE81040022000F021B8000000000020AB
:1005500008B50CA2126800920B4A1378834201D8A6
:100560005B1ED8B252788A4201D8521ED1B21DF811
:1005700001100844C0B240F08000002100F006F8ED
:1005800008BD0000004014540000002070B50509AB
:10059000364E0446012901D011B106E0012200E0E7
:1005A00000220121304600F0D0F905F001020821B7
:1005B000304600F0CAF9C5F340021021304600F081
:1005C000C4F9C5F380022021304600F0BEF9EA08E4
:1005D0004021304600F0B9F900220421304600F0F5
:1005E000B4F9012000F0AAF801220421304600F0FD
:1005F000ACF9012000F0A2F800220421304600F0FE
:10060000A4F9012000F09AF804F001020821304614
:1006100000F09BF9C4F340021021304600F095F938
:10062000C4F380022021304600F08FF9C4F3C002E9
:100630004021304600F089F900220421304600F0C4
:1006400084F9012000F07AF801220421304600F0FC
:100650007CF9012000F072F800220421304600F0FD
:1006600074F9BDE87040012000F068B8000801404E
:100670000121FFF78BBF10B5044602E0641CFFF7B1
:10068000F7FF20780028F9D110BD00001FB5002029
:100690000290FF2000900120019003200390694602
:1006A000014800F05DF81FBD000801401FB54FF480
:1006B0007060009000240120CDE901040320039024
:1006C0006946064800F04CF83820CDE900040220C5
:1006D00002906946024800F043F81FBD000801403F
:1006E000000C01401FB512481049002401604FF46E
:1006F0008271C0E90114C4604FF400710461C0E963
:100700000541C46104620A214462C0E90A4100F063
:1007100019FD4FF4805000900120CDE90104022022
:1007200003906946034800F01BF81FBD00380040E5
:1007300094000020000C01407047000070B5044692
:1007400000F008F90546601C02D004480078044413
:1007500000F000F9401BA042FAD370BD3000002029
:100760002DE9F84FDFF8B8910024A9F1040B2346D6
:100770000F2709F1040AABF1040EC9E00125A540D9
:100780002A40AA427DD1674ED1F804C0ACEB0608DE
:10079000B44532D014DCBCF1030F3AD009DCBCF113
:1007A000000F2AD0BCF1010F1CD0BCF1020F31D1D7
:1007B0001DE0BCF1110F17D0BCF1120F2AD119E0C6
:1007C000B8F5881F19D006DCB8F5803F15D0B8F50C
:1007D000801F1FD111E0B8F5001F0ED0B8F5041F1F
:1007E00018D10AE0CB6815E0CB681B1D12E0CB687E
:1007F00008330FE0CB680C330CE08B682BB1012B76
:100800004FF0080303D0456104E0042302E00561D2
:1008100000E00023FF2A01D8064601E000F10406AB
:100820004FEA840501D9A5F12005D6F8008007FA22
:1008300005FC28EA0C0803FA05F548EA0508C6F89D
:1008400000804D68ED0062D5374DAE6946F0010677
:10085000AE61AD6924F0030605F001050095334D46
:1008600006EB050CDCF80850A607360F07FA06F869
:1008700025EA0805DFF8B880404503D14FF00008AD
:1008800017E044E0DFF8AC80404502D14FF00108AA
:100890000FE0DFF8A480404502D14FF0020808E0E5
:1008A000DFF89880404502D14FF0030801E04FF097
:1008B000040808FA06F848EA0508CCF808804D68EC
:1008C000D9F80060ED024D4601D5164300E096438D
:1008D0002E604D68DAF80060AD02554601D516432A
:1008E00000E096432E604D68DBF80060AD035D4686
:1008F00001D5164300E096432E604D68DEF8006097
:10090000ED03754601D5164300E096432E60641C46
:100910000D682A46E5407FF431AFBDE8F88F00004E
:1009200008040140000011100010024000000140C6
:1009300000080140000C014000100140001401407B
:100940008068084000D0012070470AB101617047FB
:100950000904FBE701488068704700003000002070
:1009600070B5040025D094F83D00002520B984F826
:100970003C50204600F0B8F8242084F83D00206860
:10098000016821F0010101602068016841F4004123
:1009900001602068016821F40041016000F0FCF969
:1009A0004D4A6168914201D84C4900E04C49884267
:1009B00001D2012070BD4B492368B0FBF1F15E68A4
:1009C00026F03F060E435E606368934206D94FF4FB
:1009D000967359434FF47A73B1FBF3F12368491CC2
:1009E0001E6A26F03F06314319626168914210D8B1
:1009F0004900401EB0FBF1F2521CC2F30B02042A64
:100A000001D2042022E0B0FBF1F0401CC0F30B0047
:100A10001CE0A268F2B301EBC10303EB0116431E15
:100A2000B3FBF6F35B1C43F480431B0549D092B340
:100A300001EBC10202EB0111401EB0FBF1F0401CC2
:100A4000C0F30B0040F4804040F400402168CA69C4
:100A50004CF6FF739A431043C861D4E90710014371
:100A60002068026822F0C00211430160D4E903014A
:100A700001432068826848F2FF339A431143816042
:100A8000D4E9050108432168CA6822F0FF02104337
:100A9000C86001E00EE016E02068016841F0010145
:100AA00001602564202084F83D00256384F83E50D1
:100AB000002070BD01EB4106431EB3FBF6F35B1C47
:100AC000B3E70120C2E701EB4101401EB0FBF1F0AA
:100AD000401CC0F30B00B7E7A086010080841E0015
:100AE00000093D0040420F0010B586B00021009182
:100AF00001910291039100681349884222D1134C5D
:100B0000A06940F00800A061A069694600F00800F3
:100B100004904FF440700090122001900320039045
:100B20000B48FFF71DFE0B48416841F0E06141F0C2
:100B300002014160E06940F40010E061E06900F406
:100B40000010049006B010BD005400400010024098
:100B5000000C014000000140024881680278114405
:100B60008160704730000020074810B5016841F0EF
:100B700010010160032000F067F80F2000F006F874
:100B800000F024F8002010BD0020024070B50D4D8B
:100B900004464FF47A712878B1FBF0F00A490968ED
:100BA000B1FBF0F000F059FC48B9102C07D200223C
:100BB0002146501E00F028F800206C6070BD012016
:100BC00070BD0000300000203C0000200C4808B53B
:100BD000816941F001018161816901F001010091A8
:100BE000C16941F08051C161C06900F0805000903E
:100BF0000448416821F0E06141F00071416008BDA6
:100C00000010024000000140F0B40E4B1B680C467F
:100C1000C3F30223C3F10705042D00D90425191DD0
:100C2000072901D2002300E0DB1E012606FA05F1A8
:100C3000491E214099409E40761E16403143F0BC2B
:100C400001F021B80CED00E0064900F00702086849
:100C50004FF6FF03184040EA0220034A10430860A1
:100C6000704700000CED00E00000FA052DE9F047A8
:100C70000F46050061D0434E306800F00700B842CF
:100C800009D2306820F0070038433060306800F047
:100C90000700B84251D128683B4C810712D5400764
:100CA00003D5606840F4E06060602878000703D5F1
:100CB000606840F4605060606068A96820F0F000EF
:100CC000084360602878C00728D06868012810D0E1
:100CD0002168022810D0890700292EDA616821F0E6
:100CE000030101436160FFF735FE804641F2883918
:100CF0000DE021688903EFE78901EDE7FFF72AFEA0
:100D0000A0EB0801494502D90320BDE8F0876068DF
:100D1000696800F00C00B0EB810FEFD1306800F093
:100D20000700B8420BD9306820F007003843306024
:100D3000306800F00700B84201D00120E5E72878CC
:100D4000400705D56068E96820F4E060084360600A
:100D50002878000706D56068296920F4605040EAC9
:100D6000C100606000F038F86168084AC1F30311FF
:100D7000515CC8400649086006480068FFF706FF56
:100D80000020C2E70020024000100240721F00084D
:100D90003C000020340000200448054900684968F0
:100DA000044AC1F30221515CC84070473C00002056
:100DB00000100240821F0008044805490068496885
:100DC000044AC1F3C221515CC84070473C00002076
:100DD00000100240821F00080E4A51680E4801F0C0
:100DE0000C03042B11D0082B0FD10C48C1F3834303
:100DF000C903C05C0AD55168084AC1F34041921E3C
:100E0000515C054A5043B0FBF1F070470449484338
:100E1000704700000010024000127A00621F0008B4
:100E200000093D002DE9F84F040070D02078C04D36
:100E3000C00749D06868C0F38100012807D06868FE
:100E4000C0F38100022809D16868C00306D528686C
:100E5000800339D560680028E7D035E06068B0F5D8
:100E6000803F0BD010B1B0F5A02F11D0286820F42E
:100E700080302860286820F4802002E0286840F450
:100E800080302860606890B1FFF764FD06460AE094
:100E9000286840F480202860F0E700BFFFF75AFD83
:100EA000801B642873D828688003F7D50CE0FFF70F
:100EB00051FD064605E000BFFFF74CFD801B64288E
:100EC000F0D828688003F7D420789A4E80074FF036
:100ED00001094FF0000839D5686810F00C0F07D0F1
:100EE0006868C0F38100022809D16868C00306D48D
:100EF0002868800714D52069012808D110E02069EE
:100F0000B0B1C6F80090FFF725FD074605E00AE1FD
:100F1000FFF720FDC01B0228C4D828688007F7D53A
:100F20002868616920F0F80040EAC10028600DE0FF
:100F3000C6F80080FFF70EFD074604E0FFF70AFD44
:100F4000C01B022823D828688007F7D42078000720
:100F50002CD57948A169D9B1C0F80090FFF7FAFC07
:100F6000074604E0FFF7F6FCC01B02280FD8686AAA
:100F70008007F7D571484FF4FA510068B0FBF1F0E3
:100F8000009000BF0098411E0091FAD20EE080E070
:100F9000C0F80080FFF7DEFC074604E0FFF7DAFC4C
:100FA000C01B022875D8686A8007F7D420784007EC
:100FB00060D5E8690027C00008D4E86940F0805097
:100FC000E861E869012700F0805000905C48016802
:100FD000C90513D40168834641F480710160FFF7AD
:100FE000B9FC824606E000BFFFF7B4FCA0EB0A00A4
:100FF00064284ED8DBF80000C005F5D5E06801286C
:101000000AD008B1052813D0286A20F00100286210
:10101000286A20F0040002E0286A40F001002862FB
:10102000E06841F2883B98B1FFF794FC82460BE000
:10103000286A40F004002862EEE700BFFFF78AFC50
:10104000A0EB0A0159455AD8286A8007F6D50CE06A
:10105000FFF780FC824605E0FFF77CFCA0EB0A016D
:1010600059454CD8286A8007F6D41FB1E86920F0AA
:101070008050E861E06988B36968C1F381010229A1
:1010800044D00228C6F8608004D0FFF763FC044611
:1010900038E034E0FFF75EFC074604E0FFF75AFC57
:1010A000C01B02282BD828688001F7D4206AB0F52D
:1010B000803F05D16868A16820F40030084368606B
:1010C000D4E908010843696821F474110843686091
:1010D000C6F86090FFF73EFC044606E025E000BF3E
:1010E000FFF738FC001B022809D828688001F7D5D3
:1010F0001BE000BFFFF72EFC001B022802D90320D3
:10110000BDE8F88F28688001F4D40EE00128F7D0FC
:101110006868226A00F48031914204D1616A00F467
:101120007010884201D00120EAE70020E8E70000C3
:101130000010024000004242800442423C00002075
:101140000070004070B5040009D0606A002540B10D
:1011500025616561A56294F8510040B10CE0012061
:1011600070BD6068B0F5827FF4D0E561F2E784F885
:101170005050204600F040F8022084F851002068CA
:10118000016821F040010160A088218900F482708B
:1011900001F404410843A18901F400610843217C62
:1011A00001F002010843217D01F001010843218B78
:1011B00001F400710843217F01F03801084394F8DD
:1011C000201001F080010843218D01F400510843F3
:1011D00021680860A069042101EA10402168486084
:1011E0002068C16921F40061C1616565012084F84E
:1011F0005100002070BD000030B585B0002400947F
:1012000001940294039400681549884225D1154839
:10121000C16941F48041C161C16901F48041049117
:10122000816941F00801816180690F4D00F008007B
:1012300004904FF42040009002200190032003907E
:1012400069462846FFF78CFA4FF48040CDE9000448
:10125000694628460294FFF783FA05B030BD0000C6
:101260000038004000100240000C01402DE9FF4F03
:1012700081B0044690F8500000260E9F1D4693460C
:101280004FF0010901280FD04FF0010A84F850A057
:10129000FFF760FB804694F85100616801280DD08B
:1012A000B1F5827F08D103E0022005B0BDE8F08FE0
:1012B000A16809B9042801D00226C9E002980028D3
:1012C00065D0BBF1000FFBD0002DF9D094F8510090
:1012D000042802D0052084F8510000206065C4F87D
:1012E00038B0E587A58702992163E586A586206445
:1012F000606420680168490603D4016841F0400138
:101300000160E068B0F5006F606803D0F0B3012DB4
:1013100047D081E008B1012D3CD1206B21680088C5
:10132000C860206B801C2063E08E401EE08631E0A8
:101330002068816889070FD5E18E69B1B9F1010F85
:101340000AD1216B0988C160206B801C2063E08E6C
:10135000401EE0864FF0000920688168C9070CD064
:10136000E18F51B1C068A16B0880A06B801CA063A5
:10137000E08F401EE0874FF00109FFF7EBFAA0EB8A
:101380000800B84206D3781C04D001E009E05BE015
:1013900003265BE0E08E0028CAD1E08F0028C7D189
:1013A00040E0206B216800780873206B401C2063AC
:1013B000E08E401EE0862FE02068816889070FD507
:1013C000E18E69B1B9F1010F0AD1216B097801737E
:1013D000206B401C2063E08E401EE0864FF0000929
:1013E00020688168C9070CD0E18F51B1C068A16B3A
:1013F0000870A06B401CA063E08F401EE0874FF098
:101400000109FFF7A7FAA0EB0800B84202D3781C45
:1014100002D0BAE7002FB8D0E08E0028CCD1E08F00
:101420000028C9D142463946204600F04DF918B18E
:101430000126202060650BE0A06818B92068C1680B
:1014400080680090606D08B1012601E084F851A029
:10145000002084F85000304627E710B5401EB0F158
:10146000807F01D3012010BD4FF0E02460610F2187
:10147000601700F008FC0020A06107202061002018
:1014800010BD70B5040004D094F84100002510B1DF
:1014900006E0012070BD84F84050204600F024F89A
:1014A000242084F841002068C16821F40051C16003
:1014B000204600F08BFB2068016921F49041016116
:1014C0002068416921F02A0141612068C16841F426
:1014D0000051C1606564202084F8410084F8420016
:1014E0006563002070BD000030B585B00024009415
:1014F0000194029403940068174988422AD117483E
:10150000816941F480418161816901F480410491E4
:10151000816941F0080181618069114D00F0080086
:10152000049040200090022001900320039069461F
:101530002846FFF715F98020CDE9000469462846C2
:101540000294FFF70DF90748416841F0E06141F06E
:101550000401416005B030BD003801400010024078
:10156000000C014000000140FEE700002DE9F04FB3
:1015700085B0002436480094019402940394816954
:1015800041F010018161816901F0100104918169CC
:1015900041F020018161816901F02001049181699C
:1015A00041F004018161816901F0040104918169C4
:1015B00041F0080181618069DFF8989000F008002F
:1015C0004FF400550490002229464846FFF7BDF924
:1015D000DFF884B041F6FF07002239465846FFF78E
:1015E000B4F9DFF878A040F61A4800224146504688
:1015F000FFF7ABF90095022601250396CDE90154CA
:1016000069464846FFF7ACF800970396CDE90154C8
:1016100069465846FFF7A4F8CDE90054694650469C
:101620000294FFF79DF8CDF800800396CDE90154B0
:1016300069465046FFF794F84FF4E060CDE90004A6
:10164000694658460294FFF78BF805B0BDE8F08F65
:10165000001002400010014000080140000C014051
:101660000E4810B50C4901604FF4827141600021B1
:101670008160C1604FF400720161C0E90512C1616F
:101680000162416281620A21C162FFF75BFD0028AD
:1016900001D072B6FEE710BD003800409400002073
:1016A000FEE7FEE700224FF400610148FFF74DB965
:1016B000000C0140704710B51446FEF749FF204664
:1016C000BDE81040FEF7D7BF38B50B460092044680
:1016D0000022802100F008F8002804D0606D40F05E
:1016E00020006065032038BD2DE9F8431E46914671
:1016F00088460446089DFFF72DF9401B351AFFF771
:1017000029F9074625480068C0F3CB30684338E024
:10171000701C37D0FFF71EF9C01BA84203D215B1C9
:10172000009860B32CE02068416821F0E00141603E
:101730006068B0F5827F0BD1A068B0F5004F02D091
:10174000B0F5806F04D12068016821F0400101608C
:10175000A06AB0F5005F09D12068016821F400514A
:1017600001602068016841F400510160012084F8A3
:101770005100002084F850000320BDE8F8830025C4
:10178000401E00902068816838EA010004D00021E2
:101790004945BDD10020F0E70121F9E73C000020D8
:1017A000704700002DE9F0473C4E0020DFF8F09034
:1017B0003C4CDFF8F4A0307005464FF00108A9F169
:1017C000080700BF37F8151001225046FFF7BDF893
:1017D00020212046FFF7B4F8B0B1012202212046B3
:1017E000FFF7B3F83220FEF7A9FF86F80080002645
:1017F000324602212046FFF7A8F820212046FFF7B5
:101800009FF80028F9D136E010212046FFF798F81C
:10181000B0B1012202212046FFF797F83220FEF7EF
:101820008DFF86F800800126002202212046FFF766
:101830008CF810212046FFF783F80028F9D11AE030
:1018400008212046FFF77CF8E0B101220221204662
:10185000FFF77BF83220FEF771FF86F80080022642
:10186000002231462046FFF770F808212046FFF796
:1018700067F80028F9D105EB450101EB0900805D0F
:10188000BDE8F08737F8151000225046FFF75DF8E5
:101890006D1CEDB2042D95D30020F1E70800002067
:1018A000541F0008000C014000080140FFF754B924
:1018B00010B590B028216846FEF722FD14210AA831
:1018C000FEF71EFD0220009001200490102000244D
:1018D000059007946846FFF7A5FA08B172B6FEE7CF
:1018E0000F20CDE90A040C940D9400210AA80E944F
:1018F000FFF7BCF9002801D072B6FEE710B010BDAA
:10190000704710B5142000F059F8800705D1032165
:10191000BDE81040142000F08AB810BD7CB5044624
:10192000002529460D2000F019F993202070202071
:10193000607001A823460090022219460C2000F096
:1019400082F8010009D1225C401C5540C0B2042835
:10195000F9D3205CA84200D0022108467CBD70B5B6
:101960000C46054600F02AF820EA04012846BDE8A6
:10197000704000F0F3B810B500F055F88D212A2022
:1019800000F0ECF83E212B2000F0E8F81E212D207D
:1019900000F0E4F800212C2000F0E0F8702126206F
:1019A00000F0DCF84021152000F0D8F83D2111208E
:1019B00000F0D4F8BDE81040FFF7A3BF70B50D4E9E
:1019C00004464FF48055002229463046FEF7BDFFFD
:1019D0007E2000EA440040F0800000F0DDF80020A6
:1019E00000F0DAF80446012229463046FEF7ADFF42
:1019F000204670BD000C01407CB50C460546072111
:101A00000D2000F0ABF8257001A8234600900122BC
:101A100019460C2000F017F818B9BDF80410102969
:101A200000D002207CBD0F21012000F097B870B5D6
:101A30000C460546FFF7C2FF40EA04012846BDE810
:101A4000704000F08BB82DE9FF5F00270226DDF81B
:101A500038A015468B468146B8460C2805D0B9F10A
:101A60000E0F05D11227102001E077273020804685
:101A700047F08001022000F071F880210420FFF778
:101A80006EFF80210A20FFF7D2FF0021012000F025
:101A900065F8002406E01BF80410092000F05EF849
:101AA000641CA4B2AC42F6D34946012000F056F8BB
:101AB000B9F10C0F03D180210D20FFF7B8FF4FF4CF
:101AC000FA650420FFF77AFF6D1E2D0404462D0CE5
:101AD00004D0E00702D114EA080FF2D080210D20D3
:101AE000FFF73DFF35B10620FFF768FF10F01B0F31
:101AF00004D0022604B03046BDE8F09F00263C40EA
:101B0000E00700D00126B9F10C0FF3D10A20FFF74E
:101B100055FF04460C20FFF751FF10F007004FEA75
:101B2000C40104D008390844AAF8000001E0AAF86A
:101B3000001024B1052C04D90524002503E001245C
:101B4000FBE7002506E00920FFF738FF0399485519
:101B50006D1CADB2A542F6D3CCE700002DE9F041F3
:101B60000C4E0F4604464FF480550022294630465D
:101B7000FEF7EBFE7E2000EA440000F00DF8384648
:101B800000F00AF829463046BDE8F0410122FEF790
:101B9000DCBE0000000C01403EB50B4C8DF804008B
:101BA000206881688907FCD50A200090012302AAD9
:101BB00001A90548FFF75AFB206881680906FCD493
:101BC0009DF808003EBD00009400002070B504465A
:101BD00000680169E26821F4405111430161216903
:101BE000A0680843616908432168CA6841F20C6330
:101BF0009A430243CA6020684169A26921F4407196
:101C0000114341611E492068884202D1FFF7D4F890
:101C100001E0FFF7C1F800EBC00101EB00126068C2
:101C200064218000B2FBF0F3B3FBF1F36FF0180610
:101C30007343B2FBF0F5B2FBF0F605EB83053223FC
:101C400003EB0515B5FBF1F5B6FBF1F605F0F00574
:101C500005EB0615B2FBF0F6B2FBF0F0B0FBF1F0CD
:101C60006FF01802504306EB800003EB0010B0FB4E
:101C7000F1F0216800F00F002844886070BD00007A
:101C800000380140FEE70907090E002804DB00F1D7
:101C9000E02080F80014704700F00F0000F1E02011
:101CA00080F8141D704730B5002307E0C45CCD5C9C
:101CB000AC4201D0002030BD5B1CDBB29342F5D3B7
:101CC000012030BD0EB5FEF74FFFFFF7F1FDFFF726
:101CD0004DFC81487F49002501608049C0E901151C
:101CE0004FF48041C0E9035145618561C5610562DA
:101CF000FEF736FE08B172B6FEE7FFF7B1FC764894
:101D00007749AC3001604FF4E131C0E901150C2195
:101D1000C560C0E904518561C561FFF7B2FB08B138
:101D200072B6FEE76F4C00224FF400612046FEF7CA
:101D30000CFE002221152046FEF707FE6420FEF768
:101D4000FDFCFEF7B3FCFEF7A1FCFEF7CBFC6249FD
:101D50002023A02201F58A70FEF7ADFB00220221AC
:101D60002046FEF7F2FD02211020FEF7B3FB002112
:101D70000846FEF7EDFB5C4E012280213046FEF75F
:101D8000E4FDFEF79DFB59A200210120FFF793FC23
:101D9000FFF7F1FD0127594CFFF704FD6070217832
:101DA000A17000283FD001293DD1E17806291AD23F
:101DB000232838D02A2836D0504A0B325054491C98
:101DC000E170FEF77DFB4EA200210120FFF773FCBE
:101DD0004FA201210020FFF76EFC484A01210B327F
:101DE0000420FFF768FCE07806281CD1434906224E
:101DF0001931A1F10E00FFF756FF30B1FFF752FC89
:101E0000E570FEF75DFB44A203E0E570FEF758FBCA
:101E100044A200210420FFF74EFC38491231C81FAC
:101E2000FEF74AFA2771A078012815D0FEF792FD37
:101E3000D4E90812411A65EB020041F28832891A8E
:101E400070F1000019D3002280213046FEF77DFD9D
:101E5000207901280AD010E0012280213046FEF7C7
:101E600074FDFEF777FDC4E9080506E0FEF728FBE0
:101E70001EA200210120FFF71EFC20495220891DCF
:101E8000FFF7BAFD607138B9A770FEF719FB28A2F9
:101E900000210320FFF70FFC1848801DFFF73EFDCF
:101EA000607100287FF478AF1448801D8178037931
:101EB000C2788DE80E004378027807481FA1F430FD
:101EC000FEF786F9044A0121F4320846FFF7F3FBD6
:101ED00062E700000054004040000020A08601009E
:101EE00000380140000C0140000801404D4F4920DE
:101EF0004E484150204B455900000000080000208A
:101F0000494E505554204B455920434F44450000FD
:101F10004B45593A000000004F50454E20444F4F6A
:101F20005200000050415353204552524F5200007E
:101F3000434F2054484520524649440025782D25DA
:101F4000782D25782D25782D2578000000080004AF
:101F5000000200013132333435363738392A302324
:101F6000010202030405060708090A0B0C0D0E0FF7
:101F7000101000000000000000000102030406072A
:101F80000809000000000102030430313233343507
:101F900036373839414243444546403058003031A5
:101FA00032333435363738396162636465664030C0
:101FB00078000000D41F000800000020400000004E
:101FC00028010008142000084000002080070000BD
:101FD00044010008000000000000000000000000B4
:101FE000000000000000002A2A2A2A2A2A002A2AA1
:101FF0002A2A2A2A00313233343536000000000004
:1020000000000000010000001000000000000000BF
:042010000024F400B4
:04000005080000ED02
:00000001FF
